:020000040800F2
:10000000980C0020D5000008A91200085D0D00081A
:1000100000000000000000000000000000000000E0
:100020000000000000000000000000000D140008A7
:100030000000000000000000AB1200080F140008D0
:10004000E7000008E7000008E7000008E7000008F4
:10005000E7000008E7000008E7000008E7000008E4
:1000600000000000E7000008E7000008E7000008C3
:10007000E7000008E7000008E7000008E7000008C4
:10008000E7000008E7000008E7000008E7000008B4
:1000900000000000E7000008E7000008610D00080C
:1000A000E7000008E7000008E7000008E700000894
:1000B000E7000008E7000008000000000000000062
:1000C0000348854600F03CF800480047A9160008A0
:1000D000980C00200448804704480047FEE7FEE7EC
:1000E000FEE7FEE7FEE7FEE799140008C1000008FE
:1000F00030B50B46014600202022012409E00D46C0
:10010000D5409D4205D31D469540491B2546954047
:1001100040191546521E002DF1DC30BDD2B201E06F
:100120000270401C491EFBD270470022F6E710B552
:1001300013460A4604461946FFF7F0FF204610BD55
:10014000064C0125064E05E0E36807CC2B430C3C2A
:1001500098471034B442F7D3FFF7B6FFC017000832
:10016000E017000870B553080C4607E0658826883C
:1001700036042E4305682E60241D5B1E002BF5D12E
:10018000D30701D1006805E0034B1A405200895A99
:1001900000680180006870BDFEFFFF7F70B59308A6
:1001A0000C460DE025782D06667836042E43A5789A
:1001B0002D023543E6782E4305682E60241D5B1E14
:1001C000002BEFD1032314461C40002C1DD09A4372
:1001D000022C05D0012C0CD1895C0268117014E04E
:1001E00001231343CB5C895C090219430268118027
:1001F0000BE001231343CB5C8C5C24021C4303689B
:100200001C8002241443095D19700068006870BDE9
:10021000EFF3108072B6FEE7B0B5EB490C6801252C
:1002200025430D600260BFF36F8F4360B0BDC046D1
:1002300070B501229404244B5D6825435D60EFF3A3
:100240001084EFF3108572B6002502E040C940C06B
:100250006D1CEEB2402EF9D3100419680142FBD197
:1002600084F3108870BDC046F8B50446164E00F001
:10027000B9FA0546012738043168014208D0601CEC
:10028000F8D000F0AFFA411B0320A142F2D317E0EF
:1002900030680E494A1C32600840002803D0C94922
:1002A000486001200CE03168BA040020114207D0F8
:1002B000601CF8D000F096FA411B0320A142F2D353
:1002C000C0B201B0F0BDC04610200240FAC3000029
:1002D00070B503460120CC0720D01E252C46651C96
:1002E00006D01F2525400126AE40651E0E42F5D0E2
:1002F00003261546F541032D10D8C0467D442D79BF
:100300006D00AF4403010C0F0F2C07D81868416132
:1003100081681823994311438160002070BD072C28
:10032000F4D9FBE7062CF1D9F8E7B0B50446022072
:10033000607723689868012505439D60256A002041
:10034000012D0BD0022D0DD0032D03D00DE001C9DE
:100350001860521E002AFAD1186806E02046FFF7FE
:100360001DFF02E02046FFF7FDFE01216177B0BDD1
:10037000B0B504460125002C11D0607F022502286B
:100380000DD0022060772068816801220A438260D4
:1003900000254560204600F041F825776577E8B2F2
:1003A000B0BD0000B0B504460125002C32D0607FFE
:1003B000002804D100202077204600F03BF80220DE
:1003C00060772079002807D0A168E2682046FFF70F
:1003D0007FFF00281ED106E020680F494161816837
:1003E0001822914381600020C1436079002800D029
:1003F00021692068016181686022914362690A4332
:100400008260816880229143A2690A438260012050
:10041000607700252846B0BDB71DC10400680E49AD
:10042000884200D07047012000030C490A688243CB
:100430000A60704781B000680749884209D10120ED
:10044000000306490A6802430A60096801400091F6
:10045000009801B07047C04600300240381002409A
:1004600010B50024E043064988608C60C860CC6009
:1004700048604C6008600C6000F0F6F9204610BD42
:1004800024100240F0B585B00D4602464D4C21784F
:100490000220012950D003920027676001202070BC
:1004A0007D20C6003046FFF7DFFE002842D12A46F5
:1004B00002970420039948600868204D424B0428A5
:1004C00007D1A81C1968014319603046FFF7CCFE1C
:1004D00030E00298C043019210608868C200044670
:1004E00018E00494196816480140144621432F4629
:1004F000294330461E4619600546FFF7B5FE002821
:100500000FD10834224603998868049C641C334642
:100510002E463D46C96808188442E2D30298294C09
:1005200004E00199049A0A60264C334619680222B5
:10053000914319600021217005B0F0BD0200010057
:1005400005E0FEFF80B57D20C000FFF78DFE012194
:10055000C8071D4A1368034313601068C00F484062
:1005600080BDC046FEB515460F460246154C2178A3
:100570000220012923D00193029200206060012013
:1005800020707D20C6003046FFF76EFE002814D193
:100590000298012805D138462A46019BFFF73CFE08
:1005A00003E038462946FFF743FE3046FFF75CFE7E
:1005B00005490A68029B9A430A600021217003B032
:1005C000F0BDC04678080020142002400648C168EB
:1005D000002901DB002070470449016004490160E3
:1005E000C068C00F7047C04608200240230167451D
:1005F000AB89EFCDF0B58CB0714A0323009305238E
:10060000904200D000930023DA43089209930A93A2
:100610001F4606910B90CCE001220792BA4014408D
:10062000002C00D1BDE0019404934C6803252646BC
:100630002E40731E012B0397029405951ED8284661
:100640000A998840089D68400B998B68034006987A
:10065000C0680A99884018430B9988602009079957
:100660000840B8406A400B994B6813402A46034340
:100670000B9843600B980699019D05E0032E089A9C
:10068000019D01D1029C22E0059B0A9FBB40534083
:10069000C2681A408968B940039F1143089AC16033
:1006A000022E029C13D11C21099801400F20884082
:1006B00050407B08444A13400B9AD3181C6A0440EC
:1006C000069A10698840204318625468089A2046A8
:1006D000059E30400A9B98403146994051400B9A04
:1006E00013680B4003430B9803600B9831040C42D2
:1006F0000699049B55D018241C400F20A040089A4E
:1007000050403B46B3432F4AD2180B9B166E06400F
:100710006032052000070027834209D02B4883421E
:1007200005D02B488342009F02D1022700E0012719
:10073000A740374317602E46344608984440214A64
:1007400017683B4623403743079A10054D6805421A
:1007500000D03B461B4803604768034639462140AA
:10076000374350050542184600D039464160842180
:10077000475838462040374353041D4200D038467E
:10078000104A505017468022B85804400643079834
:100790000004054206990B98049B00D03446BC50D7
:1007A000039F0833099A121D09920A9A921C0A9211
:1007B0007F1C0C682246FA4000D02DE70CB0F0BD3B
:1007C000000C005000180240FCFFFF7F00040050A6
:1007D00000080050034628331830002A00D0034692
:1007E000196070471E4880687047C0461C480178F1
:1007F000826851188160704710B5012420020749B2
:100800000A6802430A60032000F00AF8002802D1B7
:1008100000F02CF80024204610BDC0460020024005
:1008200070B505460E4E31780124002915D07D2083
:10083000C000FFF75DFC01460A480068FFF758FC5E
:1008400000F074FA032D08D8002806D10024E043F4
:100850002946224600F01EF87560204670BDC0464D
:10086000000000200C0000207047000082B05F48AC
:100870004168012211434160416811400191019991
:10088000110702680A43026000680840009000985F
:1008900002B0704780B500F07BFE80BDB0B5044665
:1008A0000120002C4ED02920205C25462935002827
:1008B00008D12820002121541120C0026060204668
:1008C00000F044F8022028702068C168102211420C
:1008D00035D1CA21416253214162204600F0FEFC1D
:1008E000002818D120688169174A0A408261A168EE
:1008F00062690A43E169114382690A43826121699D
:100900000161E168090402690A430261204600F0BE
:100910000FFD002803D02168FF224A62B0BD0720E6
:100920004107206882698A438261216A626A0A43B8
:10093000A169114382690A438261FF21416201205A
:1009400028700020B0BDC046BFFF8FFBFCB500681B
:100950002549884200D0FCBD032002022348036AD7
:10096000134001210C02A34231D00B070668002579
:100970001E4207D105681D43056005681D400195AD
:10098000019D01251A4E3768274205D13768274354
:10099000376037682742FCD00E04076A3743076286
:1009A000076AB7430762066A1827BE430662066AEB
:1009B0000E430662066A02273E42FBD0066A964351
:1009C00026430662002D02D002689A430260CA03E1
:1009D000036A13430362890202680A4302600068E3
:1009E000084000900098FCBD002800403C100240E8
:1009F00000700040F0B589B00D4604462820215C07
:100A0000234628330220012900D1A3E001200890C9
:100A100018702920022107912154206804908169CF
:100A20004020084021462931002A0693059103D031
:100A3000002805D0E97805E0002811D0E87811E019
:100A40000021E9702020285C02902A7812046B783B
:100A50001B021343AA781A4388051043039017E03A
:100A60000020E87003902878A04EB047070468780B
:100A7000B04706023E43A8789C4988473043039913
:100A80008905014303912020285C984988470290FA
:100A90002B4614330ECB28464568CA26049F7E6237
:100AA00053267E6215430195029A1606039A164351
:100AB0001E433B460E43416A089A15027D20C7003B
:100AC0009869A94217D103951102884398611003D0
:100AD000996981439961FFF785FE05462068C168E1
:100AE000089A11421FD1FFF77DFE401B0321B84237
:100AF0000846F3D926E051020391884398615003D8
:100B0000996981439961FFF76DFE05462068C168C8
:100B1000079A11420BD1FFF765FE401B0321B84233
:100B20000846F3D90EE006640146443102E08664CB
:100B300001464C31019A039B0A6081691943816126
:100B4000002001212268FF235362059A11700021C1
:100B5000069A1170C0B209B0F0BDC046FEB50D4690
:100B600004462820215C27462837022001294DD041
:100B700001233B7029200221215421462931002ADA
:100B80000193009106D0E878000469780E020643CC
:100B9000A87815E06E781020064203D0EF200640BA
:100BA0000A366E70E8785149884700040290F0B226
:100BB0004E4EB0473146060202980643A878884751
:100BC00002902D782068CA2141625321416220465B
:100BD00000F084FB002803D02168FF224A6213E062
:100BE000029806430A483040690301432068416087
:100BF000204600F09DFB2168FF224A62002803D1B5
:100C000001980099087000200021397003B0F0BDF0
:100C10003FFFFF00F0B585B006462820335C37461D
:100C200028370220012B5ED00492039101253D70EC
:100C30002920022131543068CA2141625321416286
:100C400034462934304600F049FB002803D031688F
:100C5000FF224A6245E00194029532689169402082
:100C60000840049900290BD00028039D01D10020E1
:100C7000E8702878000469780C020443A87813E02F
:100C800004920028039D01D10020E8702878174CB9
:100C9000A047000400906878A0472146040200980D
:100CA0000443A8788847049A2043E97889050143DA
:100CB0000F4808401060029CA00491698143916133
:100CC000E86829690143906908439061304600F063
:100CD0002FFB3168FF224A62002802D1019804707C
:100CE00000200021397005B0F0BDC046AD120008EB
:100CF0007F7F7F0070B5044620680A49C160FFF716
:100D000071FD0546084E2068C1680020202211426E
:100D100005D1FFF767FD411B0320B142F3D3C0B2F9
:100D200070BDC0465F000100E9030000411E0120C4
:100D30000A0E0DD10748CB4A516007490B680340A2
:100D4000032080071843086000209060072111608D
:100D50007047C046FFFFFF0020ED00E0FEE7000007
:100D600070B57F48826908210A420DD106231340DD
:100D7000042B20D1436A374C65886E1C6680234E55
:100D800073550423237016E0C3690B43C361012329
:100D90001B0484691C40E30B02255D40AB1C056805
:100DA0001D430560230C0424E31A2A4C23700368B6
:100DB00020241C430460920603D42648012181802C
:100DC00018E0C26920231A43C261224A1478032C16
:100DD00011D0042C0ED10124147000255580026816
:100DE0009A430260E20343681343436002680A4384
:100DF000026070BD70BD13231B01C4691C43C46134
:100E000003680B4303600020107070BD20000020B9
:100E100010B500F0FFFB002814D00B4C20680B49E4
:100E200001400120400781420CD100F0ABFA084894
:100E30000460606807498860C860206880F308889B
:100E4000C868804710BDC046001800080000FE2F8B
:100E500008ED00E010000020F0B586B005900246D5
:100E6000243201920246203200920023D84302909D
:100E7000049152E001229A401740002F4CD0039376
:100E80004A68531E3E467643022B17D28B68734343
:100E9000032575430298454005998C682C401C43F6
:100EA00005998C600499CB687B433C464440059986
:100EB0004D6825401D4305994D6000E00298049956
:100EC0000C6974430323734343400598C5681D4070
:100ED000254304990598C560059C022A16D14A69E4
:100EE000FF2F03D837467F43009D03E03F0A7F432F
:100EF0007F43019D02987A430F247C4344402F682E
:100F0000274017432F6004994A68059C564322687E
:100F10001A4032432260039B5B1C0F683A46DA405A
:100F2000A8D1002006B0F0BD0146012082050B4B80
:100F3000994206D0AD4A91420CD1012042050948A0
:100F400000E0054808490B6813430B600A6802403B
:100F50000A6000207047C046FFFFBFFF00580040F6
:100F600000540040FFFFDFFF2C100240F0B5036883
:100F70000122934303608B68CC681F252D0206680D
:100F8000AE4324021C43344304604B68036103688E
:100F90001343036084680F4B1C4084600C698D69A7
:100FA000254386680C4F37402F438760002C03D0C1
:100FB000D2038468144384600A6803242405056806
:100FC000A54315430560496942681A400A434260D7
:100FD0000020F0BDFF7FFFFF00F8FFFFB0B501224A
:100FE0001302104908681843086090020C68044214
:100FF000FBD07F2000024C6884439003204348606C
:10100000002088600B6054040D682542FBD10B6002
:1010100053060C681C42FBD11203CA608861C243AC
:101020000A62B0BD00100240014908607047C04626
:101030000C000020B8B5EF490A680092431C00225A
:10104000D41A5C41009D06E001231B040D681D407D
:10105000541B6C41431EE40700D118460028F3D10D
:10106000B8BDC04610E000E080B5E748094901601E
:1010700020218022012303621B0283800023DB43A3
:10108000036141618261FFF78DF9002801D0FFF70C
:10109000BFF880BD00300240F0B587B0002606964C
:1010A0004D4801680422114301600168114001911B
:1010B00001990168012421430160016821400191E7
:1010C00001990168022211430160006810400190FB
:1010D0000198052000070090082529462246FFF7C1
:1010E00079FB3E48202739462246FFF773FB0394DD
:1010F00002950496059602AD00982946FFF77AFA04
:10110000039402970496059634482946FFF772FA2D
:1011100007B0F0BDF0B58FB0032000032E4A116A6E
:10112000814311621068022420431060106820403F
:101130000890089803944020029000270497012605
:1011400005960696062001900790244802AD294690
:10115000FFF782FE802002A991C1059606960198AC
:1011600007901E482946FFF777FE70051A4A9168D6
:10117000014391609168014008910898FF200006A2
:1011800017490A6882430A60F00516490860164844
:10119000099008970A970B97A8200C900D970E9727
:1011A000934C08A92046FFF7E1FE700661680143F1
:1011B0006160E0680E490140E160F003E16881434D
:1011C000E160F0042168814321607004216881435B
:1011D00021600FB0F0BDC046341002400004005042
:1011E00014E400E000E100E05B3D3000005400400A
:1011F00001F8FFFF70B590B00BA81421FEF795FF22
:1012000000240A9468462821FEF78FFF23482449CA
:1012100001607F21FF220126B307846005460C355B
:1012200016C58461C46103624462FFF737FB00287E
:1012300001D0FEF7EDFF0BA900228A700A800C9204
:101240000E920F921548FFF7E5FC002801D0FEF73B
:10125000DFFF14480A9011480AA900242246FFF72C
:101260007DFC002801D0FEF7D3FF6D46AC702C80CA
:10127000019428460C301421FEF757FF20202E54ED
:1012800030020990054829462246FFF7B3FB0028A3
:1012900001D0FEF7BDFF10B070BDC0464C08002065
:1012A0000028004001010100FEE77047B0B5044688
:1012B0000920C543284609306040C1B2F62900D84C
:1012C000284600190A30C0B20A21FEF711FF454333
:1012D000291900010843C0B2B0BD0000F8B50446AA
:1012E0002068C1680027402631421CD1C168802295
:1012F0000A43C260204629300090FFF773FA054682
:1013000000270AE000280ED1FFF76CFA401B0749BE
:10131000884202D30327009807702068C0683040D5
:10132000F9B20329EED1F8B201B0F0BDE903000033
:1013300070B504460B20C043114D295880229143BB
:10134000295028682026304209D12046FFF7D2FCD8
:101350000021002812D02920032121540EE0286802
:10136000B04328602046FFF7C5FC0021002802D0CA
:10137000292003212154286830432860C8B270BD59
:1013800018280040F8B5C44C2046FFF7CDFD0120D9
:10139000410662688A436260216881432160216856
:1013A000082291432160134C00252560124E3168BC
:1013B00003220A403260E943104A1160104A11606A
:1013C00010490D604D608D60CD600702B0693843F3
:1013D000B061FFF703FEB0693843B0619548FEF78E
:1013E000C7FFFFF73DF825606560A560F8BDC04602
:1013F0000054004010E000E00000014080E100E007
:1014000080E200E06018024028080020704780B5A4
:10141000FFF7ECF980BD000070B50721CC431B48F5
:101420000559012213021D43055105599602354203
:10143000FBD0174C25681D432560436D1824A3433A
:101440004365436D13434365426D02231A42FBD04B
:101450000F22120203689343036002688A4302600A
:10146000026838231A42FBD1090302688A430260EA
:101470000848FFF7D9FD0320FFF7D2F9002803D071
:10148000EFF3108072B6FEE770BDC0460810024050
:10149000007000400024F40070470000F0B589B0EF
:1014A000002208927F4E70780006B178090401434B
:1014B000F07800020843347904430125EB02E01878
:1014C0000390B079717909020143002951D0019349
:1014D00002922C480168AA04114205D04B21C90090
:1014E000294A625029490160FFF770F80028FBD1B2
:1014F0000220049007951F20C0062018C00A0690FD
:101500003220FEF7B1FE04A808A9FEF7BBFF0028B1
:10151000F6D1082723E0BFB2F0190179427912020F
:101520000A43817909041143C27915060D43F15D1F
:10153000427812020A43817809041143C0780606F2
:101540000E433220FEF790FE0120214632462B4604
:10155000FFF708F80028F4D108370834514E0398F3
:101560008442D8D3FEF7EEFF3220FEF77DFE029ACA
:10157000019B083302E03270761C5B1E002BFAD10F
:1015800009B0F0BD1020024023300000FBC3000072
:10159000002805DB0322034693430C4A9A1806E011
:1015A0000F220240083A03239A43074BD218C00087
:1015B000182303408801C0B29840FF219940136866
:1015C0008B430343136070471CED00E000E400E030
:1015D00010B50E48026801210B021A4214D00C4AC1
:1015E0001346FF33836003680B4200D082600368B8
:1015F0000224234201D0521C8260C90302680A42BD
:1016000002D00321C903816010BDC04610700040A4
:101610000100010010B50648046806480649074A5B
:10162000FEF783FEC043211A0020401A484110BD36
:10163000FCF700082808002000180008FCDF000064
:10164000F8B501200090C505544E144F144C207875
:101650000128FCD180203D50BFF34F8FBFF36F8F27
:10166000002020700F4800786070772804D006288A
:1016700004D1FFF713FF01E0FFF7CAFB3D603068BC
:101680000821084330603068009A104330603068A9
:1016900008433060DBE7C0460054004000E100E052
:1016A0001000002020000020F0B587B0FFF7A4F85C
:1016B000FFF7B2FEFFF7F0FCFFF79CFDFFF7D4FC4D
:1016C000FFF786FF00240694314801680222114387
:1016D00001600168114001910199016804221143E0
:1016E00001600168114001910199016801263143AF
:1016F0000160006830400190019826484025294645
:101700002246FFF767F88027224839462246FFF72E
:1017100061F80394009502950496059402AD1D4866
:101720002946FEF767FF039402970496059419482B
:1017300004462946FEF75EFF1748007800280DD1C1
:10174000FFF766FBFFF7E6FC1448016831430160D0
:10175000016808220A430260FFF772FF4B208000F5
:10176000FFF768FC214608690C4C009A104202D130
:101770000869384201D0FFF74BFBFFF7CBFC20682C
:10178000304320602068082101432160FFF758FFA3
:10179000341002400004005015F8000800540040C6
:1017A00002E008C8121F08C1002AFAD1704770472A
:1017B000002001E001C1121F002AFBD17047000088
:1017C000E01700080000002010000000A01700082B
:1017D000F017000810000020880C0000B017000867
:1017E0000100000004000000000000000024F400DC
:04000005080000C12E
:00000001FF
