:020000040800F2
:10180000680E0020D5180008953A00080532000837
:1018100000000000000000000000000000000000C8
:10182000000000000000000000000000593B00081C
:101830000000000000000000973A00089D3F0008EB
:10184000E7180008E7180008493B0008E7180008F7
:10185000E7180008E7180008E7180008E71800086C
:1018600000000000E7180008E7180008E718000863
:10187000E7180008E7180008E7180008E71800084C
:10188000E7180008E7180008E7180008E71800083C
:1018900000000000E7180008E718000809320008F7
:1018A000E7180008E7180008E7180008E71800081C
:1018B000E7180008E718000800000000000000001A
:1018C0000348854600F0D2FB004800474D4500081C
:1018D000680E00200448804704480047FEE7FEE702
:1018E000FEE7FEE7FEE7FEE725400008C118000816
:1018F00030B50B46014600202022012409E00D46A8
:10190000D5409D4205D31D469540491B254695402F
:1019100040191546521E002DF1DC30BD70B5002473
:101920002546002801DA01244042002901DA012578
:101930004942FFF7DDFFAC4200D04042002C00D00E
:10194000494270BD03460B439B0703D009E008C919
:10195000121F08C0042AFAD203E00B780370401C5F
:10196000491C521EF9D27047D2B201E00270401CED
:10197000491EFBD270470022F6E710B513460A460F
:1019800004461946FFF7F0FF204610BD024670B529
:101990004A40D30FDB0740002DD04A002AD0010E69
:1019A000140E000212020919400A520A8418E501B5
:1019B00004465443000A120A2E045043A419421943
:1019C000200CC543AA18120C0125AD03521C521954
:1019D00012047F39240400D0521C104301D440006B
:1019E000491EC2B20C06C0092018401C4008802ABB
:1019F00002D003E0002070BD40084000002900DA5A
:101A00000020184370BD70B502464A40D50F400013
:101A10004A00ED0740085208002814D0002A12D0CE
:101A2000C40DD30D41020120C0055202490A520AD9
:101A3000E41A091812187D34914201D3641C00E0A5
:101A40004900002C01DA002070BD0023914201D32F
:101A5000891A0343400849000028F7D100290AD019
:101A6000914202D10121C90705E0914201D2012131
:101A700001E00121C943E005C018401900F0F7F862
:101A800070BD0000F0B51FB488B00B990998002410
:101A900048400999C00F490049080991C0070B99AE
:101AA0000090490049080B9109990898A6460843F7
:101AB0001CD00B990A98084318D0099801244000BB
:101AC000420D4800410D099824050003000B2043F6
:101AD00009900B980003000B20430B9050181C49F1
:101AE0004018002201901446104605E000200146EF
:101AF0000DB0F0BD032801DA034600E003239C4645
:101B0000C11A0AAE0AE05F0008ADED5B4F00F75B5B
:101B10007D430027AA187C41491C5B1E6145F2DD0C
:101B2000410004AB5A522104120C0A43240C401CFD
:101B30000828DFDB0198029000997046019100901F
:101B4000059B049A0799069800F0DFF8D0E700009B
:101B50000DFCFFFF0EB5C217C10F5040CA07401859
:101B60000021054B0293019200910A460B4600F0BA
:101B7000CCF803B000BD000033040000C20F4100E8
:101B800040020123400ADB05D207090EC0187F2955
:101B900001DA00207047962903DC9623591AC840C1
:101BA00001E096398840002AF4D040427047C20FC5
:101BB000D207400040080BD0C10D0723DB01C91834
:101BC00040020905400A1143C2084007114370470B
:101BD000002001467047CB0FDB07490010B54908CC
:101BE00002460A4307D00A0D07240903E401090B42
:101BF000121B002A01DC002010BDC900440F0C4359
:101C0000C100E018D205801800F031F810BDF0B521
:101C10001FB40646002082B0054640240191009082
:101C20001BE0019922460F46304600F041FA049A23
:101C3000059B801A994110D310461946224600F0A0
:101C400027FA361A8F410197224601200021009F72
:101C500000F01EFA38184D4100902046641E0028FE
:101C6000DFDC019B00982946324607B0F0BD002911
:101C700004DA401C490001D140084000704770B4AC
:101C80000024050C05D11024000402D1002921D024
:101C90001124050E01D100020834050F01D1000105
:101CA000241D850F01D18000A41C002801DB400009
:101CB000641C002908D020252E1B0D46F540A140AC
:101CC00000D001212943084301061B1B000ADB1D2C
:101CD00002D5002070BC7047DB0518188018002959
:101CE000F8DA401C4900F5D170BC4008400070474C
:101CF00010B5002B08DA0024401C614192185B41AA
:101D00001A4301D14008400010BDF0B51FB482B0A5
:101D100005460C0003D0084607F0D0FA02E007F0B1
:101D2000CDFA2030024600902146284600F0B0F956
:101D3000049B059A04460F4618431143084314D0E8
:101D4000184610431BD0009840210A1A18460599DE
:101D500000F0AEF905460E46009A0599049800F089
:101D600097F9084305D0012004E02046394607B022
:101D7000F0BD0020C11705430E432C4337430099A3
:101D80000E986305401A7905E40A00220C43FD0A07
:101D90000A3002D500200146E9E701051019694122
:101DA0000C9C0D9D00196941FFF7A2FFDFE70000C1
:101DB000F0B507460846584087B0C00F0490480069
:101DC0000E46590040084908BC1A884105D23846D9
:101DD00031461E4617460B4602465800400810433F
:101DE0004CD0300D039040055900400D490D059031
:101DF000401A0290402872DA18030121000B0905ED
:101E00000843019004980092002805D0019952429D
:101E10000020884100920190029840210A1A0199FD
:101E2000009800F035F905460C466B4607CB00F0EC
:101E300050F9C0197141039A0E0D0023D71756406F
:101E40001A467A40164344D0049A002A2DD0029AAA
:101E5000012A039A15DC1205C01A914101263605A4
:101E6000001C7141D20F059ED20700930192029689
:101E70002A462346FFF749FF07B0F0BD38463146F2
:101E8000FAE71605224A0F46B218C01AB7410121D7
:101E90000905001C4F4100187F411146181879416F
:101EA000E20F10436D19644113E0E2076D0815431A
:101EB0006408C2071443039A01261205C01A91410F
:101EC0003605001C7141CE07400830434908C01850
:101ED00051412A462346FFF70BFFCDE7FFE7049861
:101EE00001224000C117121A00238B410498314689
:101EF000C417381AA141EEE730B40124E407634067
:101F000030BC55E730B40124E407614030BC4FE7F2
:101F10000000E0FFF0B50C465C4085B0E40FE4073C
:101F200003944C0000266408590094464908024670
:101F30000296224321D062460A431ED06200570D0A
:101F40004A000E032303550D012402462C492405A3
:101F5000781B1B0B360B4018234326436146009029
:101F60001C46501AB44103D30098401C009002E074
:101F7000921800985B41002803DA0020014605B062
:101F8000F0BD0020012109050746864611E06446A0
:101F90001D46141BB54106D36546521BB34174461A
:101FA00007430C43A646CD0740084908284392182A
:101FB0005B4105460D43EAD11046184313D06046F5
:101FC000194650407140084306D06046101AB3418C
:101FD00006D20122002306E000220123DB0702E0F3
:101FE0000122D2435310009874460105381C614108
:101FF000029C039D00196941FFF77AFEBFE70000CC
:10200000FD0300004A0009030123090B1B051943C6
:102010000A4B10B5520D9A4202DA0020014610BD5B
:10202000064B34339A4203DC9A1A00F041F810BD93
:10203000034BD21800F02CF810BD0000FF03000085
:10204000CDFBFFFF10B5002904DB0124E40740426B
:102050008C412146002B04DB1C460123DB07524246
:10206000A341994200D1904210BD0000064C0125C9
:10207000064E05E0E36807CC2B430C3C9847103430
:10208000B442F7D3FFF720FC4CD000086CD0000816
:1020900010B5202A04DB0146203A9140002010BDF3
:1020A000914020239C1A0346E3401943904010BD01
:1020B00010B5202A04DB0846203AD040002110BD8C
:1020C0000B46D340D0402024A21A91400843194621
:1020D00010BD10B5202A06DBCB170846203A104168
:1020E000C1170B4306E00B461341D0402024A21A2F
:1020F00091400843194610BD30B58C180278401C39
:1021000013071B0F01D10378401C120906D1027876
:10211000401C03E005780D70401C491C5B1EF9D182
:1021200001E00B70491C521EFBD1A142E6D30020F6
:1021300030BDEFF3108072B6FEE7000070B50122EB
:102140009404274B5D6825435D60EFF31084EFF343
:10215000108572B6002540C940C06D1CEEB2402EFD
:10216000F9D3100419680142FBD184F3108870BDC3
:10217000F0B581B0044601200090070400F0FEF99C
:102180000546174E3068384208D0601CFAD000F07F
:10219000F5F9411B0320A142F4D31DE03068114939
:1021A0004A1C32600840002803D06849486001207A
:1021B00012E00098820430680027009209E0601C59
:1021C00005D000F0DBF9411B0320A14204D23068A6
:1021D000009A1042F3D13846C0B201B0F0BDC046FB
:1021E00010200240FAC3000070B5054600F0C6F9A1
:1021F0000446E84800784619681C00D12E4600F0D5
:10220000BDF9001BB042FAD370BDC046F0B583B033
:1022100005464E4F3A780220012A4AD00291002604
:102220007E60012038707D20C4002046FFF7A0FFAB
:1022300000283CD1204601960421696029680429C0
:1022400008D11D498B1C42490A681A430A60FFF7EE
:102250008FFF2CE00199CA43029B1A60AC68EA68C0
:102260001219944218D2E700064639480146086818
:10227000124A10403843104A104308603046FFF7B6
:1022800077FF00280AD1A868E96808180837641C95
:102290008442EAD3019803E0084602E002990C6008
:1022A0002A4F2B490B4619680222914319600021DD
:1022B000397003B0F0BDC0460200010005E0FEFF2A
:1022C00080B57D20C000FFF753FF0121C807204AD9
:1022D0001368034313601068C00F484080BDC046B8
:1022E000F0B583B00D460646184C2178022001292E
:1022F0002AD0009301920296002060600126267089
:102300007D20C7003846FFF733FF00281AD1104957
:10231000029801280AD108683043086001982860B3
:10232000BFF36F8F009868600D4604E028460D46A5
:102330000199FFF703FF3846FFF71AFF2968029A51
:10234000914329600021217003B0F0BD9C0500205D
:10235000142002400648C168002901DB00207047B4
:102360000449016004490160C068C00F7047C0465D
:102370000820024023016745AB89EFCDF0B58DB051
:1023800004900F68002F00D1DDE0704A0320009018
:102390000520049B934200D000900026F043059056
:1023A00001200C963246019003460B910A93581E69
:1023B000019B099083401F40002F00D1B6E0089296
:1023C0004868032402462240551E012D06960794B4
:1023D000029003971BD825460C9EB5400F460599E1
:1023E0004D40049E0446B0682840FD680C9FBD40E7
:1023F0000543B560200901250540099885404B40FB
:102400007068184028437060079C069E06E0032A07
:10241000059903D10F46049D029823E020460C9CA9
:10242000A0404840049DEB6803400F460B99886824
:10243000A0401843E860022A029813D11C203040C3
:102440000F2181407940099A5308424A1340EB1802
:102450001E6A0E400B990A6982403243069E0B9910
:102460001A62486839460746079C20400C9B9840F2
:1024700022469A404A400B992B68134003432B6035
:1024800020040742089A039F50D0182010400F25BF
:10249000854005994D40099AA2432D4989180B6E34
:1024A0002B40603105252E070025049AB24209D041
:1024B000EE4DAA4205D0284DAA42009D02D1022528
:1024C00000E0012585401D430D603A4605984240D5
:1024D0001F4D2E68334613403E43012420050B99BF
:1024E0004968014200D033462B606E683346134082
:1024F0003E436005014200D033466B608423EE58B2
:10250000304610403E436504294200D03046104D0D
:10251000E8508023E858024007432004014228463F
:102520000B9900D03A46C250069E089A0F6838466A
:102530000A9BD840361D0C9CA41C0C9408325B1CD2
:10254000002800D032E70DB0F0BDC046000C0050AE
:1025500000180240FCFFFF7F0008005002690A409B
:102560000120002A00D11046704703462833183056
:10257000002A00D003461960704700000648006832
:102580007047C0461F48007803490A681018086061
:102590007047C046380200205C0A002010B50124B4
:1025A000200207490A6802430A60032000F00AF883
:1025B000002802D100F02CF80024204610BDC046AF
:1025C00000200240B0B505460E48017801240029DC
:1025D00016D07D20C000FFF78BF901460A4800683D
:1025E000FFF786F900F0F6FD032D09D8002807D182
:1025F0000024E0432946224600F03AF803480560EB
:102600002046B0BD38020020C40000203C0200205B
:1026100082B09D48416801221143416041681140E8
:1026200001910199110702680A430260006808409D
:102630000090009802B07047002809DB1F21084075
:102640000121814003480160BFF34F8FBFF36F8FBB
:102650007047C04680E100E0002805DB1F210840EC
:1026600001218140014801607047C04600E100E05F
:10267000002805DB0322034693430C4A9A1806E020
:102680000F220240083A03239A43074BD218C00096
:10269000182303408801C0B29840FF219940136875
:1026A0008B430343136070471CED00E000E400E03F
:1026B0000120C0030F490A6802430A607047C04600
:1026C0002B21C943C04308430A490A6802400A60F3
:1026D0007047C04610B52B21CA43C3431343054A74
:1026E00054681C40030A23435360084011680143A7
:1026F000116010BD08700040064801680722914330
:1027000003220A4302600448016804220A4302606B
:1027100030BF70470070004010ED00E070470000CF
:10272000F0B581B04E4D287800280FD04D480026D6
:1027300006704D4806704D48202101242246FFF7BF
:1027400014FF4B4804702E704A48067046480178C2
:10275000002900D182E048490978002927D0474A5A
:102760009179002905D1D179002902D1117A002966
:1027700026D03C4E3078002870D19079002805D1C1
:10278000D079002802D1107A002867D09079D179C9
:10279000127A02F02FFA3548202100242246FFF752
:1027A000E4FE3348047001202870307056E0344F46
:1027B00039780126314208D13978022211420ED1EE
:1027C000002101702B48017048E02C498A79002AC9
:1027D00005D1CA79002A02D1097A0029ECD0234810
:1027E000202100242246FFF7C0FE21480470254D19
:1027F0002878002832D13878304229D03007224951
:102800000A6802430A6009680140009100981B4E63
:10281000B079F179327A02F0EDF9E1200001B17975
:102820004143F0793C2242435018317A4018032842
:1028300001D9164C06E0002804D07D21C90041438F
:1028400013480C18134804600320C00312490860A1
:10285000FFF794FE114908600120287001B0F0BD17
:1028600058050020BA050020BC05002000040050D7
:10287000B9050020BD050020980500208A0500202C
:1028800040020020B40400203C100240B80B0000BD
:1028900018FCFFFFAC04002018700040B0040020BA
:1028A000B0B504462068816901252A03114209D088
:1028B000016D294206D0C16D2943C1652046FFF74D
:1028C0002FFF2068690382690A4209D0026D022144
:1028D0000A4205D0C26D0A43C2652046FFF71EFFBB
:1028E000292001212154B0BDF0B581B00446292032
:1028F000022121542068CA214162532141622546A8
:102900002935204601F0C8F82168002802D0FF22AE
:102910004A6235E00095002008601F4848608869D9
:10292000072202408A61FFF729FE05462068C16838
:102930000427394209D1194EFFF720FE411B2068B8
:10294000B14222D2C1683942F6D081690021816149
:10295000134A4261134A026101648164C162816267
:102960004164C164204601F0C5F82168FF224A6233
:10297000002805D1204600F09DF90020009908703C
:1029800028210022625401B0F0BDFF2141620320E2
:1029900000990870F7E7C04601210000E903000034
:1029A000FFFF0000FF007F00F0B587B0044628203D
:1029B000225C254628350220012A61D001272F708C
:1029C00029200222039222542068CA224262532202
:1029D00042622646293682693B0299420595049651
:1029E00020D1012739028A438261390382698A43EF
:1029F0008261FFF7C3FD05462068C06800213842A8
:102A000033D106917D20C600FFF7B8FD401B032798
:102A1000B04238462CD82068C06801273842F3D02D
:102A2000069825E079028A438261790382698A43A4
:102A30008261FFF7A3FD06902068C0680022039D15
:102A4000284214D1019202977D20C600FFF796FD1F
:102A50000699401A0327B042384609D82068C06852
:102A60002842F3D0029F019802E0084600E0104699
:102A70002168FF224A6204990F700021059A1170A3
:102A8000C0B207B0F0BD0000F0B585B001252C0242
:102A9000A242049305D14C62026810464430403291
:102AA00005E06A024A62026810464C3048321668F5
:102AB000320E3F24029222400068039020200192AF
:102AC0000A547F2733463B408B70A8073040C861CB
:102AD000194830404861300A07404F70320C00926C
:102AE00014400C70B20D2A40CA70454A039D2A401A
:102AF0004A600D462035049A002A1AD10F2204920A
:102B000016401A090A235A4392198A70049E3040CB
:102B10003A095A4310184870009A32402009584325
:102B200080180870029931400198000958434018F4
:102B30002870002005B0F0BD80808080F0B581B0A5
:102B40000092006843681A0CCA703F261E408E70BF
:102B50001C0A1F2525404D705F0B07203840087068
:102B60000098002815D10F2000901F46074030091B
:102B70000A267043C0198870009F3C4028094042D3
:102B80003040001948703A40180D384070438018A2
:102B9000C870002001B0F0BDF0B582B001920068AD
:102BA00083684B600369164C1C408C6000687F256D
:102BB00003462B408B70060A35404D70020C3F27B0
:102BC000009217400F70840D01222240CA70019AB2
:102BD000002A11D10F2426402A090A256A43921996
:102BE0004A70009E26403A096A4392190A702040B2
:102BF0001A096A4310188870002002B0F0BDC04660
:102C0000FF7F0000B0B504460120002C4ED02920E3
:102C1000205C25462935002808D128200021215490
:102C20001120C0026060204600F058F80220287091
:102C30002068C1681022114235D1CA214162532156
:102C40004162204600F028FF002818D120688169E1
:102C5000174A0A408261A16862690A43E169114327
:102C600082690A43826121690161E168090402699C
:102C70000A430261204600F03DFF002803D021688E
:102C8000FF224A62B0BD07204107206882698A435B
:102C90008261216A626A0A43A169114382690A4317
:102CA0008261FF214162012028700020B0BDC04632
:102CB000BFFF8FFB80B500683449884200D080BDDB
:102CC0000120C103324A136A8B43136280021168E8
:102CD000814311600220FFF7AFFC80BDF0B583B0E7
:102CE00000682A4988424ED1032002022848036A1C
:102CF000134001210C02A34231D00B0706680025C6
:102D00001E4207D105681D43056005681D400295F8
:102D1000029D01251F4E3768274205D1376827439A
:102D2000376037682742FCD00E04076A37430762D2
:102D3000076AB7430762066A1827BE430662066A37
:102D40000E430662066A02273E42FBD0066A96439D
:102D500026430662002D02D002689A430260CA032D
:102D6000036A134303628A02036813430360006823
:102D7000104001900198022400222046FFF778FCC1
:102D80002046FFF769FC03B0F0BDC04600280040B4
:102D90003C10024000700040F0B589B00746282082
:102DA0003B5C3D4628350226012B00D1E3E00120A3
:102DB000079028702920022300933B543E68B36992
:102DC000402018403B462933002A06950897059372
:102DD000049603D0002812D0CA7812E0002801D14E
:102DE0000020C8700B7800200A2B16D30022103266
:102DF000F633DBB2092BFAD8F02422400EE0002291
:102E0000CA702020085C0B781B044C7824021C43F9
:102E10008D78254392052A4331E002461A43130474
:102E20004D780A2D08D300221032F635EDB2092D67
:102E3000FAD8F024224000E002462A4315028E7898
:102E40000A2E08D300221032F636F6B2092EFAD82E
:102E5000F024224000E0024620240F5D1D4315436C
:102E600035430B46CA7892052A430A2F05D3002022
:102E70001030F637FFB2092FFAD8384319464B699C
:102E800003938C69CD694F68CA26049B5E62532602
:102E90005E621E4627430297000610432843039AAA
:102EA00010430190496A079A1302B069994224D1EC
:102EB0000393012739028843B061F06D3843F06510
:102EC000FFF75CFB054608980068C16839420DD1E0
:102ED0007D20C400FFF752FB401B0321A0420E4699
:102EE00040D808980068C1683942F3D0019901645C
:102EF000390302464432079B24E051020391884380
:102F0000B061F06D009C2043F065FFF737FB05468C
:102F1000089800682746C16839420DD17D20C40059
:102F2000FFF72CFB401B0321A0420E461AD808983D
:102F30000068C1683942F3D001998164079B590345
:102F400002464C32029C039D146082692A438261CE
:102F500082690A438261D80408490A6802430A6008
:102F60000026194608980268FF235362059A1170DB
:102F70000021069A1170F0B209B0F0BD801802402D
:102F8000F0B583B004462820235C2546283502206E
:102F9000012B6BD001262E702920022323542346B7
:102FA0002933002A0196009306D0C87800044A7895
:102FB000170207438E7831E048781022104203D080
:102FC000EF2210400A304870CA7800260A2A08D337
:102FD00000231033F632D2B2092AFAD8F0273B4048
:102FE00000E0334613431A04C0B20A2808D3002372
:102FF0001033F630C0B20928FAD8F0273B4000E081
:10300000334603431F02174388780A2805D3002656
:103010001036F630C0B20928FAD806430878029074
:103020002068CA21416253214162204600F034FDEC
:10303000002803D02168FF224A6215E03F200640A5
:1030400037430B48384002994903014320684160E7
:10305000204600F04FFD2168FF224A62002803D17C
:1030600001980099087000200021297003B0F0BD7C
:103070003FFFFF00F0B585B01646074628203A5CB2
:103080003B4628330220012A7CD00391012504937A
:103090001D702920022139543868CA214162532108
:1030A00041623C462934384600F0F6FC002803D043
:1030B0003968FF224A6262E00194029538688269A9
:1030C00040211140002E0CD00029039D01D1002188
:1030D000E970297809046A7812020A43A978029EE5
:1030E0002FE00029039D01D10021E9702A780021F9
:1030F0000A2A08D300231033F632D2B2092AFAD8AA
:10310000F026334000E00B4613431C046A780A2A79
:1031100008D300261036F632D2B2092AFAD8F023A4
:103120001E4000E00E46164332022243AB780A2BC3
:10313000029E05D300211031F633DBB2092BFAD8F9
:1031400019437F230B401343E978890519430E4A3D
:103150000A400260B10482698A438261E9682A698F
:103160000A43816911438161384600F0C3FC396824
:10317000FF224A62002802D1019806700020002137
:10318000049A117005B0F0BD7F7F7F00F0B581B06B
:10319000044620680E49C160FFF7F0F90546206833
:1031A000C0680021202738420DD100918E4EFFF7D4
:1031B000E5F9411B0320B14206D22068C0683842BD
:1031C000F5D0009800E00846C0B201B0F0BDC0469E
:1031D0005F000100411E01200A0E0DD10748E24A9E
:1031E000516007490B6803400320800718430860BB
:1031F00000209060072111607047C046FFFFFF006C
:1032000020ED00E0FEE70000F0B583B0744D2868C3
:10321000401C28602868734C7349884224D3204698
:1032200000F0DCFA01267006616881436160206865
:10323000B043206020680827B843206005F052FFA3
:1032400020683043206020683843206020681021C7
:1032500001432160206880210143216020682021F2
:103260000143216000202860A169A0690825294246
:103270000FD1C00650D4A0690221084255D1A069DF
:10328000042108426CD1A0692026304270D1A06987
:10329000A4E0000CFE21014054480078814240D156
:1032A000534A1088002827D02068A843206020684F
:1032B000102102918843206020688027B843206055
:1032C00020682026B043206011884A4800F046FC60
:1032D00000204749088020680121014321602068BF
:1032E0002843206020680299084320602068384302
:1032F000206020683043206001200004A169014261
:1033000023D0A169E2692A43E261014266D02068C4
:1033100002210143216061E0E06910210143E16184
:103320005CE0E0692843E06158E034480188344AB1
:10333000515CA1620188491C01800188314A1288D0
:1033400091424BD30021018048E0E0692843E061CD
:1033500020680421014321602748012101603DE0EC
:10336000606A23490A88531C0B802249885435E03F
:10337000E0693043E061A06901210291084201D176
:103380000120A0612068A8432060206810210191DD
:103390008843206020688027B84320602068B043BD
:1033A000206013480188134800F0D8FB0020104922
:1033B00008802168029A1143216021682943216015
:1033C0002168019A114321602168394321602168F5
:1033D00031432160084908600B49086003B0F0BD23
:1033E0001405002000540040E903000004050020FB
:1033F0005A0A00204802002010050020180800206A
:10340000C00500201A08002008050020F0B583B090
:10341000844F3C68864D2540140404432C432248C5
:10342000204338600192002A1FD0029101200090B1
:10343000050400267C497A6904240AE00A682A42C5
:1034400006D05A1E3846FF273B420746134623D074
:103450007A692242F2D03A6A02980270401C0290C5
:10346000761CF2B201988242E5D3786920210842A5
:103470000DD1012004046C4D2A68224204D05E1E46
:10348000FF221342334608D07A690A42F4D0B86961
:103490000843B861002000E000983A68654911408F
:1034A000396003B0F0BDC04600240002F0B583B01F
:1034B000029201900122D00300921604594D6A69CC
:1034C000594F02420AD0594A3C68344203D05C1E2C
:1034D0001342234640D06C690442F5D12868544A0F
:1034E000024002980004019C204310431F4A0243FB
:1034F0002A600298002819D000246A69012002423B
:103500000CD101903A68324204D05A1E4748034217
:1035100013461FD06A6901200242F3D0087868621E
:10352000491C641CE0B2029A9042E6D369692020EB
:1035300001420AD13D493A68324203D05A1E0B4239
:10354000134609D06A690242F5D0A9690143A9610D
:10355000002002E0019800E000982A6835491140F7
:10356000296003B0F0BDC04610E000E0002000027A
:10357000F0B583B00192029100900120C2030504CE
:10358000284C666928490CE00E682E4208D05E1E61
:1035900027460C4625490B4221463C46334639D046
:1035A00066691642F0D12668214A3240019E3604EF
:1035B000009F3E431643420332432260019A002A91
:1035C00017D00027194E6269024207D10A682A42C1
:1035D000F9D05A1E33421346F5D11BE0029E3278D1
:1035E0006262761C02967F1CFAB2019EB2420F4EB6
:1035F000E9D3626900204026324210D10B4A0F689D
:103600002F4203D05F1E13423B4603D06769374207
:10361000F5D004E02068074901402160012003B093
:10362000F0BDC0460458004010E000E0FFFF00007D
:10363000008000FC00E800FEF0B583B00193154661
:10364000064602AA11700127089C11463A462346F5
:10365000FFF78EFF002806D1E3B230462946019AD3
:10366000FFF7D4FE0746384603B0F0BDF0B503AF10
:1036700081B06E461D4630603F20C00008330340D5
:103680006846C41AA5462170601C11462A46FEF7FA
:1036900059F9681CC2B2B36930682146FFF706FFCA
:1036A000FC1F053CA546F0BD10B581B000210C4AB9
:1036B000084610430368012044070B51091DC02927
:1036C000F6D108490A6802430A600968014000917E
:1036D00000980548016803220A43026001B010BD4A
:1036E00000180008401002400000014080B582B080
:1036F00001AA064810807D20C0006946086080202D
:1037000000210223FFF7B2FF02B080BD7527000041
:10371000F0B585B00D68002D5CD0024624320192D0
:103720000246203200920024E643039104960127CA
:10373000A7402F40002F49D04B685A1E022A0295FD
:103740003A4617D252438D6855430326564304998F
:103750004E4081683140294381600399C9687943AB
:103760003D46049E754046682E400E434660049ECA
:10377000039900E0524309695143032555437540BD
:10378000C6682E400E43C6600399022B17D14B69C1
:10379000FF2F03D816467643009F03E03E0A764388
:1037A0007643019F73430F217143049E71403E682D
:1037B0000E401E433E6003990B6802934B685A43C8
:1037C00003682B4013430360049E029D641C2A4639
:1037D000E240ACD1002005B0F0BD00000146012060
:1037E00082058C4B994206D0094A91420CD10120A6
:1037F0004205084800E0054807490B6813430B6081
:103800000A6802400A6000207047C046FFFFBFFF01
:1038100000540040FFFFDFFF2C100240F0B50368AA
:103820000122934303608B68CC681F252D02066834
:10383000AE4324021C43344304604B6803610368B5
:103840001343036084680F4B1C4084600C698D69CE
:10385000254386680C4F37402F438760002C03D0E8
:10386000D2038468144384600A680324240505682D
:10387000A54315430560496942681A400A434260FE
:103880000020F0BDFF7FFFFF00F8FFFF0149086047
:103890007047C046C4000020F0B587B000240694ED
:1038A00005945A48016804221143016001681140DF
:1038B00001910199016801252943016001682940AE
:1038C00001910199016802221143016000681040D2
:1038D0000190019805200707C62138462246FEF7C9
:1038E00044FE082138462A46FEF73FFE1548294681
:1038F0002246FEF73AFE039411200290049402AE91
:1039000038463146FEF73AFD0395CE2002900494E6
:10391000059438463146FEF731FD03952320029089
:1039200004940594074F38463146FEF727FD03946B
:1039300010200290049538463146FEF71FFD07B06F
:10394000F0BDC04600040050F0B593B00BA8039042
:103950000830029014210191FEF70DF82B490868F8
:103960000126304308600868304005900598022021
:1039700000900690F00205900020049007900896B1
:10398000099606250A950520070705AC3846214605
:10399000FFF7BEFE3003059000980690049807904C
:1039A000089609960A9538462146FFF7B1FEB005FC
:1039B000164A9168014391609168014012911298F2
:1039C00013480C9004980B9002980199FDF7D3FFCF
:1039D000104D28460399FFF721FF700669680143DF
:1039E0006960E8680C490140E960F003E9688143D7
:1039F000E960F004296881432960700429688143E3
:103A0000296028683043286013B0F0BD34100240AC
:103A10001A0610000058004001F8FFFFB0B586B04C
:103A200001A81421FDF7A7FF4A487F21FF220023A8
:103A30000124A407154D0560836005460C350EC5AD
:103A40008361C361046243620093FFF7DBF80028DF
:103A500001D0FEF76EFB01A900228A700A80029253
:103A6000049205923B48FFF705FB002801D0FEF7C2
:103A700060FB07480090374869460022FFF780FA4C
:103A8000002801D0FEF755FB06B0B0BD002800406D
:103A900001010100FEE77047F0B581B004462068DF
:103AA000C1680026402739421FD1C16880220A43DD
:103AB000C260FEF763FD05462068C068384214D135
:103AC0002046293000900026FEF758FD401B08498B
:103AD000884202D30326009806702068C0683840E8
:103AE000F1B2032901D00028EED0F0B201B0F0BD50
:103AF000E903000070B504460B20C043114D29585E
:103B000080229143295028682026304209D120463E
:103B1000FFF73CFB0021002812D02920032121546B
:103B20000EE02868B04328602046FFF72FFB0021F5
:103B3000002802D02920032121542868304328601E
:103B4000C8B270BD1828004080B50248FEF7A8FE34
:103B500080BDC046D804002070470000F0B58DB08D
:103B600004460025049503950295019502290CD37E
:103B70002778012F13D0002F19D16078002800D1A9
:103B800090E0F448202101258EE0012900D099E041
:103B9000217801293FD0002940D1E8483CE06078F5
:103BA000002800D186E0EB480221012485E0FE20B8
:103BB0003840202845D101ADE81920384E1E012299
:103BC00031460092FDF7D0FE05A8C0192038611CCF
:103BD0003246FDF7B7FE287800280BD005A80078FC
:103BE00007210140DE4A11700028009900D10146EA
:103BF000E848017001A84078002863D005A8407803
:103C000007210140D54A11700121002800D1014649
:103C1000E148017056E0C84801210FE0FE2008404D
:103C2000102851D1CF48007805AA1070CE480078EE
:103C30005070501810381222511A89B200F0D6FB79
:103C400040E0302F3ED3322F4DD801AEF01930383E
:103C50004D1E01222946FDF787FE05A8C019303800
:103C6000611C2A46FDF76EFE3078002802D0BA4863
:103C70000599017001A84078002803D005A8407874
:103C8000B549487001A88078002803D005A880783D
:103C9000B1498870B0480178C1704178017181786C
:103CA000417157E0AB4820212A46FEF75EFCA3484D
:103CB000057007E0A748022100242246FEF755FCC4
:103CC0009D4804700DB0F0BD2029FBD3212944D8B4
:103CD00020295CD1A248017805A801709F49097884
:103CE00041700221AAE77AB28320002A46DA87428D
:103CF00044D20720C043060101A800908019C019D2
:103D00004D1E01222946FDF72FFE05A88019C01976
:103D1000611C2A46FDF716FE00980078002802D0A4
:103D20008D480599817101A84078002803D005A825
:103D300040788949C87101A88078002803D005A877
:103D4000807885490872844881794172C17981728D
:103D5000017AC17200F070FEB4E708463038C0B294
:103D6000022816D87C48027805AB1A7042785A703F
:103D7000807898705818303833225DE7F02F0FDCC8
:103D8000402F44D0412F4FD0F02F57D09AE773489F
:103D900042E748B2002818DB412925D169483BE7B2
:103DA000F12F48D0FD2F4CD0FF2F8BD1022989D184
:103DB000012161567C3040B2814283DD644801704C
:103DC00000F078FA05F08EF97CE7822900D98BE0C3
:103DD0006148827905AB1A70C2795A70007A98707E
:103DE00058188038832227E708466038C0B2172861
:103DF00000D967E752487CC8006805920695079489
:103E000008AA49C205A840186038782214E76078EB
:103E1000002800D156E7514800780421084200D11B
:103E200050E75B480121F4E661780120002900D1C8
:103E30000846444901E060784349087000F03AFAC6
:103E400040E76078012800D03CE74848012505702C
:103E50000078002800D135E7454C2046FFF7BEFC2E
:103E60006068444E30406060EF4320683840206016
:103E70000820C5432068284020603F4C2046FFF7BB
:103E8000ADFC606830406060206838402060206889
:103E9000284020603948FEF727FD00F0C5FA384F6A
:103EA0002C4C384E40212046FEF758FB002805D107
:103EB00080212046FEF752FB002808D03068401CC5
:103EC00030603068B842EDD9002028490870781C6D
:103ED0003168814218D2BFF34F8F2B482B490160C4
:103EE000BFF34F8F00BFFDE7FD2906DC902918D0F6
:103EF000F12900D0E6E614488EE6FE291AD0FF2903
:103F000000D0DFE6124887E6FFF7C6FCFFF71CFD8E
:103F1000FFF784FD05F0E6F800F050FA002030606D
:103F2000D0E60C481021FEF719FB291A414105A8DB
:103F3000017071E605486FE6CA000020B90500204F
:103F400038050020A804002018050020C900002022
:103F500005050020000400508A050020CC00002048
:103F6000400200205C0500206C050020B504002004
:103F700000540040FFFFFFFD00580040D80400201F
:103F80005FEA0000540500200CED00E00400FA0593
:103F9000BD050020BB050020B805002080B5FEF758
:103FA000F1FA80BD70B50721CC431B4805590122A9
:103FB00013021D430551055996023542FBD0174C9B
:103FC00025681D432560436D1824A3434365436D55
:103FD00013434365426D02231A42FBD00F221202A3
:103FE00003689343036002688A43026002683823CF
:103FF0001A42FBD1090302688A4302600848FFF7AE
:1040000045FC0320FEF7DEFA002803D0EFF3108012
:1040100072B6FEE770BDC046081002400070004056
:104020000024F40070470000B0B573480078002801
:1040300000D1E0E07148017800290CD170490022DC
:104040000A7301230B704A608A606E490B700A7311
:104050004A608A6003706A4C204600F06FFD0028B9
:1040600061D0217A207802460A43002A06D1012035
:104070002072FEF783FA60602078217A002910D040
:1040800000280ED1FEF77AFA6168421A5E4801787C
:1040900000290BD15D4B9A4208D301210170617256
:1040A00006E0594A1278002A03D10BE0002907D014
:1040B0002078002837D0002020725349087032E061
:1040C0002078217A00292ED000282CD0FEF756FA2D
:1040D0006168401A32280AD3FEF750FA6168401A24
:1040E000FF21F631884202D20120A07219E0FEF7CA
:1040F00045FA6168401A0009454D7D2809D3FEF74D
:104100003DFA6168401A691C884202D20120E072BF
:1041100007E0FEF733FA6168401AA84201D901208E
:10412000207300202072374C204600F033FD002819
:1041300061D0217A207802460A43002A06D1012064
:104140002072FEF71BFA60602078217A002910D0D7
:1041500000280ED1FEF712FA6168421A2D48017844
:1041600000290BD1294B9A4208D3012101706172B9
:1041700006E0284A1278002A03D10BE0002907D074
:104180002078002837D00020207222490870B0BD66
:104190002078217A00292ED000282CD0FEF7EEF9C5
:1041A0006168401A32280AD3FEF7E8F96168401ABC
:1041B000FF21F631884202D20120A07219E0FEF7F9
:1041C000DDF96168401A0009114D7D2809D3FEF719
:1041D000D5F96168401A691C884202D20120E07258
:1041E00007E0FEF7CBF96168401AA84201D9012027
:1041F000207300202072B0BDC8000020A004002061
:104200005C0500206C050020A1040020E9030000EB
:1042100088130000A204002010B50E480268012196
:104220000B021A4214D00C4A1346FF338360036812
:104230000B4200D0826003680224234201D0521C4A
:104240008260C90302680A4202D00321C903816067
:1042500010BDC0461070004001000100B0B5144808
:10426000027864235A4344780A214C43A218847884
:104270001419AE4AD470C4784C430579641914718A
:1042800044794C43857964195471C4795C43037A49
:104290004B431B19447A1B195372837A4B43C47ADC
:1042A0001B199372037B4B43407B1818D072B0BD2F
:1042B0007C05002010B59B4C2021204600F020FCFE
:1042C000002828D09B4800782070974800786070BC
:1042D00096480178A1704178E170817821718179E7
:1042E0006171C179A171007AE07191480078207202
:1042F00091480078607291480078A07290480078E8
:10430000E0729048007820738F4800786073202115
:10431000204604F05DFF10BD10B582B001AC002155
:1043200021807D21C9006A4611604000C1B2812010
:1043300002232246FFF780F96078019909020143C0
:1043400008B2FDF707FC044A044BFDF79BFBFDF7A1
:1043500042FC02B010BDC046FCA9F1D24D62503FF4
:1043600080B500F007F802490968FDF74CFB80BDF5
:10437000C000002010B582B001AC002121807D2159
:10438000C9006A4611604000FF30C1B2812002239B
:104390002246FFF751F9607801990902014308B2FA
:1043A000FDF7D8FB034A044BFDF76CFBFDF713FC4C
:1043B00002B010BD7B14AE47E17A743F0A48016831
:1043C00001220A430260016808220A430260016870
:1043D00010220A430260016880220A4302600168D9
:1043E00020220A43026070470054004010B50C467A
:1043F0000146E2084B20C0004B2A00D304460029A6
:104400000AD0002C08D005482246FDF79BFA044844
:10441000002101800348048010BDC046C005002073
:10442000180800201A08002070B586B000240594F2
:104430000D4801680222114301600068104000909D
:1044400000980A4DC026284631462246FEF78DF8D0
:104450000294019601200390049401A92846FDF7D7
:104460008DFF06B070BDC0463410024000040050FD
:1044700010B52C4C2021204600F042FB002825D00E
:10448000607829490870A07828490870E078487059
:104490002079887060798871A079C871E079087294
:1044A000207A23490870207822490870607A2249CE
:1044B0000870A07A21490870E07A21490870207BB1
:1044C00020490870607B2049087010BD19485621AA
:1044D0000170217014480078607014480178A17050
:1044E0004178E1708178217181796171C179A1711F
:1044F000007AE0710E48007820720F4800786072F0
:104500000E480078A0720E480078E0720D480078DE
:1045100020730D48007860732021204604F058FE77
:1045200010BDC046B6040020A80400208A05002063
:104530004002002005050020CC000020600A002079
:1045400098050020CA00002018050020F0B589B0A9
:10455000FFF7AAF8FEF722F8FFF724FDFFF79CF912
:10456000FFF7F2F9FFF75AFAFFF756FEE64C202163
:10457000012520462A46FDF7F8FF02212046049136
:104580002A46FDF7F2FFE14806950570FFF7AEF801
:10459000FFF76EFF0520000710210390FDF7DEFFF7
:1045A00000280DD101210398FDF7D8FF002807D17D
:1045B000D84800210170FFF77DFE6420FDF714FE4E
:1045C000FD4800F0B1FB00F007FFFC480078022135
:1045D000002801D0012200E00022F448FDF7C5FFC9
:1045E00004F080FDFFF7EAFE06990802059003201B
:1045F000C003029008070190F74FFC4DC44EFDF731
:10460000BDFF3968884250D902273846FFF784FE3B
:10461000F24E3060F249FDF7B9F9FDF7AFFAF14912
:1046200008600D4603242046FFF776FE7060EC49D3
:10463000FDF7ACF9FDF7A2FA686001252846FFF7FF
:104640006BFEB060E649FDF7A1F9FDF797FAE54981
:1046500088603846FFF784FEF060E14F3946FDF789
:1046600095F9FDF78BFADF4EF0602046FFF778FEF4
:10467000DA49086139463C46FDF788F9FDF77EFACC
:10468000306137462846D94DFFF76AFED349486165
:10469000DC4E2146FDF77AF9FDF770FA7861FDF7F7
:1046A0006DFF6430CC490F460860FFF7BDFCC3487E
:1046B000007800280AD0CC480078012804D00028CF
:1046C00004D100F09DFE01E003F08AFF2878002865
:1046D00066D0FDF753FFC6490968401AC549096805
:1046E00088425DD3B74E3046FFF778F87068B94915
:1046F00008407060069FFC4330682040306008200E
:10470000C543306828403060AF4E3046FFF766F84A
:104710007068B04908407060306820403060306890
:1047200028403060B44C207838420ED0A848024669
:1047300010680199084310601068084008900898B4
:10474000FDF7B6FF0298A149086020780499084255
:1047500006D10120FDF7B4FF0220FDF7B1FF0BE009
:104760000598401CFDF7B6FFA448FDF7B3FF944839
:1047700096490860401C0860974E37469B4DDE4EB8
:104780000821002403982246FDF7EFFE0221874806
:104790002246FDF7EAFE89480470FDF7ADFF2C7054
:1047A00097480078002832D0307800280AD17078F5
:1047B000002807D1B078002804D1934800780699E2
:1047C000084272D1904800780699084233D0307878
:1047D000002802D17078002862D0287800282AD1D9
:1047E0008F4800788B4909780143080623D120219E
:1047F0006E48069C2246FDF7B8FE6D48047030787E
:104800007178B27800F0F6F98548047013E06948D1
:104810000078002808D030780028C5D170780028AA
:10482000C2D1B0780028BFD17E480599FEF7BCF808
:1048300000207B49087000207B4908607B480068A5
:1048400000280FD07A480468FDF798FE844209D208
:10485000784801460868401C0860FDF78FFE0A3062
:104860007349086073480068332800D2C7E6554C86
:104870002046FEF7B3FF6068564908406060206834
:10488000069988432060206808218843206004F04E
:1048900029FCFFF793FD0598F430FDF7A5FCAEE683
:1048A0002878B178002999D1C5E7584800780028C0
:1048B0001ED0574800780028BDD1B079002805D116
:1048C000F079002802D1307A0028B4D0B079F1799B
:1048D000327A00F08FF92021002434482246FDF777
:1048E00044FE3348047001204A4908704849A1E752
:1048F00041480078069908420ED13F480078049953
:10490000084298D011E0C04600040050B9050020CC
:104910008A050020A8040020B079002805D1F0798C
:10492000002802D1307A0028E7D0202100241F4837
:104930002246FDF71AFE1E4804702878002800D091
:1049400079E72D4800780699084228D02048024689
:104950001068019908431060106808400790079894
:10496000B079F179327A00F045F9E1200001B179AE
:104970004143F0793C2242435018317A40180328D1
:10498000254907D80028214604D07D21C90041438C
:10499000224809181748016002980C490860FDF781
:1049A000EDFD134908600120287044E70004005021
:1049B000B9050020A80400201C080020CA0000201F
:1049C00001000100005400400058004018700040F1
:1049D0003C100240FFFFFFFD340500201C050020B5
:1049E0000000C84238050020A9040020B4040020BB
:1049F000B0040020AC0400204002002002020000AD
:104A0000BD0500208A050020CC000020980500206C
:104A1000BA05002058050020B80B000018FCFFFF65
:104A2000BC050020D804002014050020100500203B
:104A30000C05002008050020F0B581B02E4EF0785E
:104A400064252946FCF754FF2C4F3870F0780A246F
:104A50002146FCF74DFF2146FCF74AFF7970F078BC
:104A60002146FCF745FFB97030792146FCF740FF3D
:104A70002146FCF73DFFF97030792146FCF738FFFD
:104A8000397170792146FCF733FF2146FCF730FF7E
:104A9000797170792146FCF72BFFB971707A29463C
:104AA000FCF726FFF871707A2146FCF721FF2146BA
:104AB000FCF71EFF3972707A2146FCF719FF7972F4
:104AC000B07A2146FCF714FF2146FCF711FFB972BA
:104AD000B07A2146FCF70CFFF972F07A2146FCF718
:104AE00007FF2146FCF704FF3973F07A2146FCF7F3
:104AF000FFFE797301B0F0BD8A0500207C0500201F
:104B0000B0B50C4B1C8800220B4DAC420FD15C8819
:104B1000002C0CD08C4200D30C46002C07D0002176
:104B2000CA18127A4254491CA142F9D322461046AF
:104B3000B0BDC04600F8000855AA0000F0B583B02B
:104B400001900520000701210290FDF707FD0746AF
:104B500000242646254601210298FDF7FFFCF9B204
:104B60008842214607D1691C0846204A1040800827
:104B70007C2808D83846761CB2B21D4B9A420746AC
:104B80000D46E8D302E0019807700124204603B0E7
:104B9000F0BDC046F0B583B001900520000710219C
:104BA0000290FDF7DBFC074600242646254610212F
:104BB0000298FDF7D3FCF9B28842214607D1691C5F
:104BC00008460A4A104080087C2808D83846761CD7
:104BD000B2B2074B9A4207460D46E8D302E001986D
:104BE00007700124204603B0F0BDC046FCFF000062
:104BF000DC050000F0B58DB014460F46029003A806
:104C00002821FCF7B8FE00253C2C284606D33C267C
:104C100020463146FCF76CFE4643A41BC6193C2EC9
:104C20000AD33C2530462946FCF762FE0E46F019B1
:104C30002946FCF75DFE054602982D180121182D26
:104C400001910DD3182728463946FCF751FE0D4631
:104C5000029828183946FCF74BFE401C029000E0F1
:104C6000029103AF7E703D70BC70002404943846FE
:104C70000C301421FCF77FFE202002993954019852
:104C800000020C9000F012F8244839462246FEF744
:104C900083F8002801D0FDF74CFA0DB0F0BDC046F6
:104CA000400001490870704704050020B0B586B087
:104CB00001A81421FCF75FFE18487F21FF22002382
:104CC0000124A407164D0560836005460C350EC50A
:104CD0008361C361046243620093FDF793FF002880
:104CE00001D0FDF726FA01A900228A700A800292FB
:104CF000049205920948FEF7BDF9002801D0FDF79E
:104D000018FA08480090054869460022FEF738F96D
:104D1000002801D0FDF70DFA06B0B0BDD804002080
:104D2000002800400101010010B504460649074A69
:104D3000074B00F083FA204603F078FF002120465D
:104D400003F082FF10BDC046309C0008A58C00080F
:104D50005990000880B53821415C0268127C4A43B2
:104D6000D100406BFCF707FE80BD0000F0B583B0BA
:104D700015460E46089C61198AB269460A6002937C
:104D800099198BB2074631462A4600F0D5F900281A
:104D90000FD0002C0DD0002069460860AAB238461A
:104DA0003146029B00F046F8641E6D1CE148044247
:104DB000F1D103B0F0BDC046F0B581B01D46174635
:104DC0000E4604467020205C032818D878440079E9
:104DD0004000874401060B10E16D20468847C71943
:104DE0000DE0E16D20468847361A08E0E16D204667
:104DF00088473F1A03E0E16D204688478619662000
:104E00002752642026522046294603F0B9FD014668
:104E10000020002902D0204603F078FC80B201B0C7
:104E2000F0BDB0B582B000246D462C6000F002F8F1
:104E300002B0B0BDF0B585B015460E46044603A8D5
:104E4000058004A8068002A803808C20205C00282E
:104E500048D0002B46D00A98012B08D003281ED03A
:104E6000022804D1F01A401C04A9088001E0C00700
:104E700019D14C20205AA84234D84E20205AA8429A
:104E800030D94A20235A4820225A04A802A900F007
:104E900081FA002826D004A80688002018E0E81A25
:104EA000401C03A908804820205AB0421AD84A2042
:104EB000205AB04216D94E20235A4C20225A03A819
:104EC00002A900F067FA00280CD003A80588012089
:104ED00002A90B88216B8F6869460860204631461D
:104EE0002A46B84705B0F0BDF0B589B01C460E465D
:104EF000054692202B5C501C80B269460860002059
:104F00000590C01A049358410290A01983B2284614
:104F10003146069200F010F9079592350895002861
:104F200033D0002C2ED00E9F07989130039001258E
:104F300001E0029803E0387805420CD00498089903
:104F40000870684605990160B1B201230798069A76
:104F5000FFF770FF03E0039800780028E9D0781C81
:104F60006900CAB2002A00D03846FF235B0019400E
:104F70000125002A00D00D46641E761C6D490C42A6
:104F80000746D8D104980899087009B0F0BDC0460A
:104F9000F0B589B015460590CA1A581A994200D83A
:104FA0000246019290B208900E9EA81B721BB54259
:104FB00000D81046029082B2089807928242344686
:104FC00000D81C46089A079890422A4600D80A46FC
:104FD0000898079F874200D833460898079E864264
:104FE00000D82946A2421D46019E00D80D46A24285
:104FF00000D8194601200490A94201D84D480490D8
:10500000089807998142029900D831463346A24256
:10501000164600D82646771E4648864200D03746B8
:10502000B8B20690A24200D814460698844227D807
:1050300088B2039008980799814200D8029B3D48A6
:1050400003401E460398470808980799814202D9F1
:10505000A9B2A2B201E0A1B2AAB2059800F012F87A
:1050600038B2871B3804002805DA00140399471862
:10507000A8B204990D18641CA0B206998842E3D91D
:1050800009B0F0BD10B582B04C23C35A934211D879
:105090004E23C35A93420DD94823C35A8B4209D891
:1050A0004A23C35A8B4205D900236C46236001234F
:1050B000FFF7C0FE02B010BD10B5024C446003F013
:1050C000B7FA10BD918C0008B0B582B001246D46CE
:1050D0002C60FFF7AFFE02B0B0BD0000F0B585B0A8
:1050E00015460A9C621996B26A46166004935A18CD
:1050F00093B2029003912A4600F01EF8002814D0C3
:10510000002C12D00B9F0498C01D09490140CE0805
:1051100068460760AAB202AB0BCBFFF7E5FEBF19EA
:10512000641E6D1C03480442F2D105B0F0BDC046B8
:10513000F8FF0000FFFF000070B504464C20255A20
:105140004E20205A049E904205D90020B24207D832
:10515000B54220D204E00020B5421CD2B2421AD996
:105160004820225A4A20205A88420AD90120002485
:105170009A42024600D32246994200D82046104364
:1051800070BD012000249942014600D821469A4270
:1051900000D32046084070BD10B5044603F0DAFC89
:1051A000204603F04AFD10BD0122022900D80A461C
:1051B00092214254704710B50446A06D884207D032
:1051C000A1652046743003F093FC204600F058F8A7
:1051D00010BD7022815470476D22815470470000C9
:1051E0000149C1657047C046D1860008B0B5044684
:1051F000382022543920002525546D202554912033
:1052000025548D202554FF2002309222A052E362C3
:10521000A5656163049820630168204688470648B5
:1052200020656065206B4168204688472046FFF76F
:10523000D7FF70202554B0BD0000FFFF70B582B0CD
:1052400016460D460446684603600A490A4A204647
:10525000334603F000FD01AE304603F043FC014647
:10526000327868460560054B2046FFF7BFFF02B065
:1052700070BDC046498F0008D18D0008418A0008E2
:1052800070B5816D002924D0812143568E2143546D
:10529000822142568F2142548D21455C01468F3137
:1052A00004468E34002D14D0012D07D18325455797
:1052B000AB4200DA25708423C05607E07E254557AF
:1052C0008026805745199D4200DD2570824200DD11
:1052D000087070BD022B05D0012B05D0002B05D125
:1052E000081804E0401A02E0801A00E0101880B2AA
:1052F0007047022B05D0012B05D0002B05D11018CB
:1053000004E0801A02E0081800E0401A80B27047FA
:10531000F0B581B004465220235A5420225A50201E
:10532000215A5620205A6D4628602046FFF704FF78
:1053300025468C3521465631234652332246543277
:1053400026465036002821D0012028704820275AB0
:10535000204648303588AF4200D205804A20255A81
:10536000188823464A33854200D918804C20235A96
:10537000108822464C32834200D210804E20225A9E
:1053800008884E34824203D9208001E00020287032
:1053900001B0F0BDF0B505880C886419A6B2AE4224
:1053A00007D25E1E9D4200D326469D4202D315467B
:1053B00000E0264600249D420CD2B7B2974209D99C
:1053C000954200D32A4602809F4200D83346981A5D
:1053D000088001242046F0BD80B508480178C170DE
:1053E000417801718178417181794172C17981720D
:1053F000017AC172FFF720FB80BDC0468A050020FC
:10540000F0B5BBB022AD64210C912846FCF7B3FA8D
:10541000734F3846FFF79EFC012438462146FFF7BC
:10542000DBFE002638463146FFF7D3FE38460A94A5
:105430002146FFF7B9FE17220D9240243846314627
:105440002346FFF7EEFC2822384631462346FFF775
:10545000E8FC152110911824384632462346FFF700
:1054600033FE2B21384632462346FFF72DFE5D4999
:105470003846FFF7A0FE052106245BA338462246E6
:10548000FFF71AFE1B2159A338462246FFF714FEE8
:10549000312157A338462246FFF70EFE55493846BC
:1054A000FFF789FE54488068FCF781FB6A4603C217
:1054B000524A28460C9F394603F0E6FE04460E2267
:1054C0000F92474831462B46FFF7F6FD2846214606
:1054D000FCF751FA484840694949FCF794FA4949B0
:1054E0000840FCF764FB6A4603C2474A284639462F
:1054F00003F0CAFE04463A480E963146109A2B46EF
:10550000FFF7DAFD28462146FCF735FA3A484068AD
:10551000FCF74DFB6A4603C228463E463146374AF1
:1055200003F0B2FE04462E480D9F39460F9A2B46D3
:10553000FFF7C2FD28462146FCF71DFA2E480069F8
:105540002F49FCF760FA2F490840FCF730FB6A4608
:1055500003C2284631462C4A03F096FE04462048F2
:105560003946109A2B46FFF7A7FD28462146FCF73F
:1055700002FA21480068FCF71AFB6A4603C2284673
:10558000314637461D4A03F07FFE04462D26144857
:1055900031460F9A2B46FFF78FFD28462146FCF730
:1055A000EAF91548C0681649FCF72DFA1549084074
:1055B000FCF7FDFA6A4603C228463946124A03F050
:1055C00063FE0D9006483146109A2B46FFF774FD96
:1055D000FF272C370D480078002810971DD117E0C1
:1055E0001C08002077A200084F5554004241540087
:1055F0005553420099AF00081C050020EE9B00089F
:1056000000007A44FFFFFF7FDC9B0008A804002015
:105610009D480078002800D1DCE29C481CAE314651
:105620000E9D2A46FDF78AFA1DAC984821462A4667
:10563000FDF7B2FA3A462B3A12AF944839462B4658
:10564000FDF722FAE120050121786943B2789048FC
:105650004243511862783C2672438918A27889180F
:105660008C4A89183B786B4320243C5D4443E01806
:105670007B787343C018BB78C0188218501A8A42CE
:105680000E9C00D3044620462946FCF731F90B90C6
:105690004543641B20463146FCF72AF90C904643EB
:1056A000A01B0E907C480078002800D10EE17B48BA
:1056B0000078002800D1FBE1794F7A493846FFF79E
:1056C0007AFD09212626784B38463246FFF7F4FC4E
:1056D00076493846FFF76FFD13210991744B384620
:1056E0003246FFF7E9FC22AD28460D99FCF743F955
:1056F0007048C37864210D916F4A284603F0C4FDB9
:10570000044638466749FFF756FD17210891384689
:1057100032462B46FFF7D0FC38466449FFF74BFD75
:10572000664B384631463246FFF7C6FC28462146CE
:10573000FCF721F95F480379614A28460D9C214610
:1057400003F0A2FD059038465649FFF734FD2921A4
:105750000791384632462B46FFF7AEFC3846534990
:10576000FFF729FD33210691384632460496534B04
:10577000FFF7A2FC28460599FCF7FDF84D48437950
:10578000284621464E4A03F07FFD0390384645499E
:10579000FFF711FD36210591384632462B46FFF7BB
:1057A0008BFC3846414E3146FFF705FD00211F2492
:1057B000444B38462246FFF77FFC38463949FFF70D
:1057C000FAFC0521404B38462246FFF775FC384667
:1057D0003146FFF7F0FC384609992246344BFFF773
:1057E0006BFC28460399FCF7C6F828460D9E314607
:1057F000314A0B9B03F048FD0B9038462949FFF7CF
:10580000DAFC3846089922462B46FFF755FC384605
:105810002649FFF7D0FC384604992246274BFFF76C
:105820004BFC28460B99FCF7A6F828463146244A3B
:105830000C9B03F029FD064638461A49FFF7BBFCCE
:105840003846079922462B46FFF736FC384617495B
:10585000FFF7B1FC384606992246184BFFF72CFC9F
:1058600028463146FCF787F828460D99144A0E9BC6
:1058700003F00AFD38460B49FFF79DFC38460599B1
:10588000224600F075FEC046BD050020D804002069
:105890008051010080AEFEFF600A0020B4040020A9
:1058A0001C08002099AF0008E69B000877A20008BA
:1058B000D89B00088A050020F99B0008D69B0008A9
:1058C000F49B0008DA9B0008E29B000822A80D9ECA
:1058D0003146FCF750F8B2480078002800D149E280
:1058E000B04FB1493846FFF766FC09211F24AF4B82
:1058F00038462246FFF7E0FBAD493846FFF75BFC30
:1059000013210991AB4B38462246FFF7D5FB22AD58
:1059100028463146FCF72FF8A748C378064664218D
:105920000D91A64A284603F0AFFC079038469E49E1
:10593000FFF741FC17210891384622462B46FFF716
:10594000BBFB38469A49FFF736FC262104919C4B55
:1059500038462246FFF7B0FB28460799FCF70BF8BC
:105960003379984A28460D9E314603F08DFC059008
:1059700038468D49FFF71FFC2921079138462246FA
:105980002B46FFF799FB38468949FFF714FC332172
:105990000691384622468A4BFFF78EFB284605992A
:1059A000FBF7E9FF8448437928463146854A03F0EE
:1059B0006BFC039038467C49FFF7FDFB36210591CF
:1059C000384622462B46FFF777FB3846784C21466F
:1059D000FFF7F1FB00217C4B38463E46049F3A46D8
:1059E000FFF76AFB30467049FFF7E5FB0521774B6F
:1059F00030463A46FFF760FB30462146FFF7DBFBB7
:105A0000304609993A466B4BFFF756FB28460399F7
:105A1000FBF7B1FF28460D9C2146684A0B9B03F01B
:105A200033FC0B9030466049FFF7C5FB30460899C0
:105A30003A462B46FFF740FB30465D49FFF7BBFB7C
:105A4000304639463A465E4BFFF736FB28460B99FF
:105A5000FBF791FF284621465A4A0C9B03F014FCA1
:105A6000044630465049FFF7A6FB304607993A46B0
:105A70002B46FFF721FB30464D49FFF79CFB304694
:105A800006993A464E4BFFF717FB28462146FBF78F
:105A900072FF28460D994B4A0E9B03F0F5FB3046EA
:105AA0004149FFF788FB304605993A4600F060FD12
:105AB00022A80D9F3946FBF75EFF45480078394C18
:105AC000002800D1CAE138492046FFF774FB0921BC
:105AD0002626364B20463246FFF7EEFA344920465A
:105AE000FFF769FB1321334B20463246FFF7E4FAF8
:105AF00022AD28463946FBF73EFF2F48C37864277E
:105B00002E4A284639460D9703F0BEFB09902046E1
:105B10002549FFF750FB1721204632462B46FFF759
:105B2000CBFA20462249FFF746FB254B204631465B
:105B30003246FFF7C1FA28460999FBF71CFF1E48B9
:105B40000379204A2846394603F09EFB0746204643
:105B50001549FFF730FB2921204632462B46FFF737
:105B6000ABFA20461249FFF726FB33212046324686
:105B7000134BFFF7A1FA28463946FBF7FCFE0E4807
:105B8000437928460D990F4A03F07EFB07462046CD
:105B90000549FFF710FB3621204632462B46D0E15F
:105BA000B40400201C08002099AF0008E69B000800
:105BB00077A20008D89B00088A050020F99B0008FE
:105BC000D69B0008F49B0008DA9B0008E29B0008C3
:105BD00058050020FE480078FE490978002900D1C8
:105BE00054E20E280FD80A998140FB4801420AD09E
:105BF000FA4CFB492046FFF7DEFA00211F22F94B41
:105C00002046FFF759FAF54CF7492046FFF7D3FA3B
:105C100009212626F54B20463246FFF74DFAF0497A
:105C20002046FFF7C8FA1321F14B20463246FFF712
:105C300043FA22AF38460D99FBF79DFEED48C37835
:105C40006425ED4A384629460E9503F01DFB0D905C
:105C50002046E549FFF7AFFA1721204632463B467A
:105C6000FFF72AFA2046DE49FFF7A5FAFE4B204649
:105C700031463246FFF720FA38460D99FBF77BFE96
:105C8000DC480379F94A3846294603F0FDFA05460F
:105C90002046D549FFF78FFA2921204632463B4658
:105CA000FFF70AFA2046CE49FFF785FA332120464E
:105CB0003246ED4BFFF700FA38462946FBF75BFE0C
:105CC000CC48437938460E99E84A03F0DDFA054698
:105CD0002046C549FFF76FFA3621204632463B463B
:105CE000FFF7EAF9BA480078C01FC0B206280AD800
:105CF000BA4CBB492046FFF75EFA00212622B94B79
:105D00002046FFF7D9F9B54CB7492046FFF753FABB
:105D100005211F26D64B20463246FFF7CDF9B04964
:105D20002046FFF748FA1321B14B20463246FFF7D1
:105D3000C3F922AF38462946FBF71DFEAD48437A2A
:105D40006425AD4A384629460E9503F09DFA0D901C
:105D50002046A549FFF72FFA1721204632463B4639
:105D6000FFF7AAF920469E49FFF725FA2621BE4BE8
:105D7000204653E2BF480078984C002800D184E2C6
:105D800099492046FFF717FA092137461F26974BF6
:105D900020463246FFF790F991492046FFF70BFA6B
:105DA0001321934B20463246FFF786F922AD284651
:105DB0003946FBF7E0FD8F48C37864278E4A2846B2
:105DC00039460D9703F060FA099020468649FFF79F
:105DD000F2F91721204632462B46FFF76DF920468F
:105DE0007F49FFF7E8F926219F4B20463246FFF70F
:105DF00063F928460999FBF7BEFD7E4803799B4A63
:105E00002846394603F040FA074620467649FFF710
:105E1000D2F92921204632462B46FFF74DF920467C
:105E20006F49FFF7C8F93321204632468E4BFFF702
:105E300043F928463946FBF79EFD6E4843792846CC
:105E40000D998A4A03F020FA074620466649FFF773
:105E5000B2F93621204632462B4689E2604E204672
:105E60003146FFF7A8F9002126255E4B20462A4639
:105E7000FFF722F95C492046FFF79DF909215B4BAA
:105E800020462A46FFF718F920463146FFF793F9D6
:105E90001321574B20462A46FFF70EF922AE304613
:105EA0003946FBF768FD6427534A304639460B9B59
:105EB00003F0EAF90D9020464B49FFF77CF91721D2
:105EC00020462A463346FFF7F7F820464449FFF7B5
:105ED00072F9654B204629462A46FFF7EDF8304611
:105EE0000D99FBF748FD614A304639460C9B03F09B
:105EF000CBF90D9020463C49FFF75DF9292120465A
:105F00002A463346FFF7D8F820463549FFF753F9BC
:105F1000332120462A46544BFFF7CEF830460D99E0
:105F2000FBF729FD30463946504A0E9B03F0ACF989
:105F3000074620462C49FFF73EF9362120462A46DF
:105F40003346FFF7B9F84B480078244C002855D069
:105F5000234E20463146FFF72EF900211F25214B05
:105F600020462A46FFF7A8F81F492046FFF723F9E5
:105F700005213F4B20462A46FFF79EF82046314632
:105F8000FFF719F913211A4B20462A46FFF794F818
:105F900022AE30463946FBF7EEFC6427164A3046FF
:105FA00039460B9B03F070F90D9020460E49FFF720
:105FB00002F9172120462A463346FFF77DF820468E
:105FC0000749FFF7F8F82621274B204616E2C0467E
:105FD000CB000020600A00207F4000001C08002049
:105FE00077A20008DA9B000899AF0008E69B00083A
:105FF000D89B00088A050020F99B00081E4920460E
:10600000FFF7D9F805211F26194B20463246FFF726
:1060100053F81A492046FFF7CEF81321184B2046B3
:106020003246FFF749F822AD28463946FBF7A3FC74
:106030001448437A6427144A284639460E9703F0D9
:1060400023F90D9020460C49FFF7B5F8172120469B
:1060500032462B46FFF730F820460849FFF7ABF8E9
:106060002621014B20464EE2D69B0008F49B0008F7
:10607000E29B00085805002099AF000877A20008AD
:10608000D89B00088A050020F99B00080E280FD82D
:106090000A998140F44801420AD0F44CF449204660
:1060A000FFF789F800211F22F24B2046FFF704F882
:1060B000EE4CF1492046FFF77EF809211F26EF4BF1
:1060C00020463246FEF7F8FFE9492046FFF773F80D
:1060D0001321EB4B20463246FEF7EEFF22AF384647
:1060E0000D99FBF748FCE748C3786425E64A384633
:1060F00029460E9503F0C8F80D902046DE49FFF7BB
:106100005AF81721204632463B46FEF7D5FF204677
:10611000D749FFF750F82621DC4B20463246FEF7E0
:10612000CBFF38460D99FBF726FCD6480379D84AB1
:106130003846294603F0A8F805462046CE49FFF721
:106140003AF82921204632463B46FEF7B5FF204665
:10615000C749FFF730F8332120463246CB4BFEF7D4
:10616000ABFF38462946FBF706FCC648437938465C
:106170000E99C74A03F088F805462046BE49FFF746
:106180001AF83621204632463B46FEF795FFC148B5
:106190000078C01FC0B206280AD8B44CB4492046C3
:1061A000FFF709F800212622B24B2046FEF784FFB4
:1061B000AE4CB1492046FEF7FEFF05212626B64B20
:1061C00020463246FEF778FFA9492046FEF7F3FF46
:1061D0001321AB4B20463246FEF76EFF22AF384606
:1061E0002946FBF7C8FBA748437A6425A64A3846E8
:1061F00029460E9503F048F80D9020469E49FEF77B
:10620000DAFF1721204632463B46FEF755FF20466F
:106210009749FEF7D0FF9D4B204631463246FEF7A8
:106220004BFF38460D99FBF7A6FB9648837A984AB0
:106230003846294603F028F8054620468E49FEF7E1
:10624000BAFF2921204632463B46FEF735FF20465D
:106250008749FEF7B0FF3321204632468B4BFEF7CD
:106260002BFF38462946FBF786FB8648C37A38461B
:106270000E99874A03F008F820467F49FEF79BFFF6
:106280003621204632463B4673E1794F2046394657
:10629000FEF791FF00211F25764B20462A46FEF788
:1062A0000BFF75492046FEF786FF0921734B2046F8
:1062B0002A46FEF701FF20463946FEF77CFF1321F0
:1062C0006F4B20462A46FEF7F7FE314622AE304697
:1062D000FBF751FB64276C4A304639460B9B02F0B2
:1062E000D3FF0D9020466449FEF765FF1721204635
:1062F0002A463346FEF7E0FE20465D49FEF75BFF87
:106300002621624B20462A46FEF7D6FE30460D99DE
:10631000FBF731FB5E4A304639460C9B02F0B4FF76
:106320000D9020465449FEF746FF292120462A4673
:106330003346FEF7C1FE20464D49FEF73CFF3321B0
:1063400020462A46514BFEF7B7FE30460D99FBF723
:1063500012FB304639464E4A0E9B02F095FF074627
:1063600020464549FEF727FF362120462A46334678
:10637000FEF7A2FEA24800783C4C002800D18DE038
:106380003B4E20463146FEF716FF00212625394BAD
:1063900020462A46FEF790FE37492046FEF70BFFBF
:1063A00005213D4B20462A46FEF786FE2046314613
:1063B000FEF701FF1321324B20462A46FEF77CFEF2
:1063C00022AE30463946FBF7D6FA64272E4A3046CD
:1063D00039460B9B02F058FF0D9020462649FEF7E8
:1063E000EAFE172120462A463346FEF765FE204680
:1063F0001F49FEF7E0FE254B204629462A46FEF7B8
:106400005BFE30460D99FBF7B6FA214A3046394615
:106410000C9B02F039FF0D9020461749FEF7CBFE8A
:10642000292120462A463346FEF746FE20461049DB
:10643000FEF7C1FE332120462A46144BFEF73CFEF0
:1064400030460D99FBF797FA30463946104A0E9BB5
:1064500002F01AFF20460849FEF7ADFE362120461D
:106460002A46334685E0C0467F4000001C080020D5
:1064700077A20008DA9B000899AF0008E69B0008A5
:10648000D89B00088A050020F99B0008D69B0008CD
:10649000F49B0008CB000020E29B000859492046ED
:1064A000FEF789FE05212626574B20463246FEF789
:1064B00003FE56492046FEF77EFE1321544B20462C
:1064C0003246FEF7F9FD22AD28463946FBF753FA6E
:1064D0005048437A6427504A284639460E9702F0BE
:1064E000D3FE0D9020464749FEF765FE1721204652
:1064F00032462B46FEF7E0FD20464449FEF75BFEA0
:10650000464B204631463246FEF7D6FD28460D99C9
:10651000FBF731FA3F48837A414A2846394602F070
:10652000B3FE074620463749FEF745FE292120469F
:1065300032462B46FEF7C0FD20463449FEF73BFEAF
:10654000332120463246354BFEF7B6FD2846394604
:10655000FBF711FA2F48C37A28460E99304A02F009
:1065600093FE20462749FEF726FE36212046324676
:106570002B46FEF7A1FD2B4E109F2B4C2568FBF7F9
:10658000FDFF85421BD2FBF7F9FFC8302060274989
:106590000868401C086026490A78521C0A70254980
:1065A0000A780024A31A53410B700321FBF7A0F9CA
:1065B000002904D120480178621A4A4102701F4D17
:1065C0002878002801D100F038FD1D4800780E28F9
:1065D00001D900F032FD40007844808840008744B3
:1065E00031004800600078009000A800C000D8008A
:1065F000EF0007011F0137014F0167017F01C0460E
:106600005805002099AF0008E29B000877A2000817
:10661000D89B00088A050020F99B0008D69B00083B
:10662000F49B0008A8040020B8080020C00800203F
:1066300096050020BC080020C4080020500500205A
:10664000CB000020F148817A00290BD0F0490B786B
:10665000F049CA1D002B00D011460A78521C0A705E
:10666000002181720078002800D154E1EA4800211D
:106670006BE1E648817A00290CD0FE490B78FE4A8E
:10668000511C0832002B00D011460A78521C0A70A7
:10669000002181720078002800D164E1F7480021D0
:1066A0007CE1F348817A00290CD0F2490B78F24A58
:1066B000911C0932002B00D011460A78521C0A7036
:1066C000002181720078002800D175E1EB4800219B
:1066D0008DE1E748817A00290CD0E6490B78E64A3B
:1066E000D11C0A32002B00D011460A78521C0A70C5
:1066F000002181720078002800D18FE1DF4800215D
:10670000A7E1DB48817A00290CD0DA490B78DA4A14
:10671000111D0B32002B00D011460A78521C0A7052
:10672000002181720078002800D1AFE1D348002118
:10673000C7E1CF48817A00290CD0CE490B78CE4AE8
:10674000511D0C32002B00D011460A78521C0A70E1
:10675000002181720078002800D1C0E1C7480021E3
:10676000D8E1C348817A00290CD0C2490B78C24ACB
:10677000911D0D32002B00D011460A78521C0A7070
:10678000002181720078002800D1D1E1BB480021AE
:10679000E9E1B748817A00290BD0B6490B78B64AAF
:1067A000D11D002B00D011460A78521C0A7000211E
:1067B00081720078002800D1E3E1B0480021FAE1BD
:1067C000AB48817A00290CD0AA490B78AA494A1C07
:1067D0000831002B00D011460A78521C0A700021A3
:1067E00081720078002800D1F3E1A44800210BE277
:1067F0009F48817A00290CD09E490B789E498A1CBB
:106800000931002B00D011460A78521C0A70002171
:1068100081720078002800D104E2984800211CE22F
:106820009348817A00290CD092490B789249CA1C6E
:106830000A31002B00D011460A78521C0A70002140
:1068400081720078002800D115E28C4800212DE2E9
:106850008748817A00290CD086490B7886490A1D21
:106860000B31002B00D011460A78521C0A7000210F
:1068700081720078002800D126E2804800213EE2A3
:106880007B48817A00290CD07A490B787A494A1DD5
:106890000C31002B00D011460A78521C0A700021DE
:1068A00081720078002800D137E2744800214FE25D
:1068B0006F48817A00290CD06E490B786E498A1D89
:1068C0000D31002B00D011460A78521C0A700021AD
:1068D00081720078002800D148E26848002160E217
:1068E0006348807A002805D0624801780022521A55
:1068F0004A41027062480078002800D19DE3614C53
:1069000000212046FEF750FC68460F9901600321E4
:10691000182210238AE3594C2078002805D1FBF770
:106920002DFE5949086001202070FBF727FE5649CB
:106930000968401AB84209D94E4802784E48C11D2C
:10694000002A00D008460178491C017049480078A7
:10695000002800D133E24848C179032900D234E24B
:106960000021C17131E2454C2078002805D1FBF7A8
:1069700005FE4549086001202070FBF7FFFD4249F4
:106980000968401AB8420AD93A4802783A49481C7C
:106990000831002A00D008460178491C01703548AA
:1069A0000078002800D11FE23348017A062900D27E
:1069B00020E2002101721DE2304C2078002805D130
:1069C000FBF7DCFD3049086001202070FBF7D6FDA5
:1069D0002D490968401AB8420AD926480278264942
:1069E000881C0931002A00D008460178491C017032
:1069F00020480078002800D10BE21F48417A062980
:106A000000D20CE20021417209E2C0466C05002070
:106A1000600A00207C050020BF080020174C207869
:106A2000002805D1FBF7AAFD174908600120207056
:106A3000FBF7A4FD14490968401AB8420AD90D4869
:106A400002780D49C81C0A31002A00D00846017896
:106A5000491C017007480078002800D1EEE1064883
:106A6000817A062900D2EFE100218172ECE1C04673
:106A70006C050020600A00207C050020BF08002073
:106A8000BC0800201C080020B4080020F64C207828
:106A9000002805D1FBF772FDF44908600120207041
:106AA000FBF76CFDF1490968401AB8420AD9F04871
:106AB0000278F049081D0B31002A00D00846017801
:106AC000491C0170EA480078002800D1D4E1E94867
:106AD000C17A0A2900D2D5E10021C172D2E1FB4C72
:106AE0002078002805D1FBF749FDF949086001200D
:106AF0002070FBF743FDF6490968401AB8420AD9ED
:106B0000F4480278F449481D0C31002A00D00846A8
:106B10000178491C0170EF480078002800D1C0E1DD
:106B2000ED48017B062900D2C1E100210173BEE1DD
:106B3000E64C2078002805D1FBF720FDE4490860E9
:106B400001202070FBF71AFDE1490968401AB8429C
:106B50000AD9E0480278E049881D0D31002A00D0AA
:106B600008460178491C0170DA480078002800D1F5
:106B7000B8E1D948417B0A2900D2B9E1002141732B
:106B8000B6E1D24C2078002805D1FBF7F7FCD049BC
:106B9000086001202070FBF7F1FCCD490968401A1C
:106BA000B84209D9CB480278CB49C81D002A00D089
:106BB00008460178491C0170C6480078002800D1B9
:106BC000A6E1C5480178032900D2A7E100210170A0
:106BD000A4E1BE4C2078002805D1FBF7CFFCBC49CE
:106BE000086001202070FBF7C9FCB9490968401A08
:106BF000B8420AD9B7480278B748411C0830002A81
:106C000000D008460178491C0170B248007800287D
:106C100000D192E1B0484178062900D293E10021E9
:106C2000417090E1A94C2078002805D1FBF7A6FC23
:106C3000A749086001202070FBF7A0FCA44909685F
:106C4000401AB8420AD9A3480278A348811C0930E7
:106C5000002A00D008460178491C01709D48007840
:106C6000002800D17DE19C488178062900D27EE190
:106C7000002181707BE1954C2078002805D1FBF73D
:106C80007DFC9349086001202070FBF777FC904958
:106C90000968401AB8420AD98E4802788E48C11C49
:106CA0000A30002A00D008460178491C0170894842
:106CB0000078002800D168E18748C178062900D211
:106CC00069E10021C17066E1804C2078002805D17F
:106CD000FBF754FC7E49086001202070FBF74EFC56
:106CE0007B490968401AB8420AD97A4802787A483A
:106CF000011D0B30002A00D008460178491C0170A4
:106D000074480078002800D153E1734801790A29BA
:106D100000D254E10021017151E16C4C207800282F
:106D200005D1FBF72BFC6A49086001202070FBF7B6
:106D300025FC67490968401AB8420AD965480278B3
:106D40006548411D0C30002A00D008460178491CD6
:106D5000017060480078002800D13EE15E4841792A
:106D6000062900D23FE1002141713CE1574C2078D7
:106D7000002805D1FBF702FC55490860012020706E
:106D8000FBF7FCFB52490968401AB8420AD951483E
:106D900002785148811D0D30002A00D00846017844
:106DA000491C01704B480078002800D129E14A486D
:106DB00081790A2900D22AE10021817127E1464820
:106DC0000178032901D3002101704448007800288C
:106DD00000D132E1424C00212046FEF7E5F90720C0
:106DE00069460860172191E03B484178062901D3A4
:106DF0000021417039480078002800D11DE1384C4D
:106E000000212046FEF7D0F90720694608601C21C2
:106E10007CE031488178062901D3002181702F4818
:106E20000078002800D108E12D4C00212046FEF713
:106E3000BBF9072069460860212167E02648C17830
:106E4000062901D30021C17024480078002800D110
:106E5000F3E0234C00212046FEF7A6F907206946FF
:106E60000860282152E0C046BF080020B408002076
:106E7000600A00207C050020174801790A2901D307
:106E80000021017115480078002800D1D5E0144C8C
:106E900000212046FEF788F90720694608602D2169
:106EA00034E00D484179062901D3002141710B4896
:106EB0000078002800D1C0E0094C00212046FEF7F0
:106EC00073F907206946086036211FE0BF080020DB
:106ED000B4080020600A00207C050020BC080020C7
:106EE0001C080020C54881790A2901D3002181713D
:106EF000C3480078002800D19FE0C24C0021204602
:106F0000FEF752F90720694608603B2118228CE001
:106F1000BA48C179032901D30021C171B84800786A
:106F2000002800D189E0B74C00212046FEF73CF94B
:106F3000072069460860172176E0B048017A0629E3
:106F400001D300210172AE480078002875D0AD4C05
:106F500000212046FEF728F90720694608601C2119
:106F600062E0A648417A062901D300214172A44873
:106F70000078002861D0A34C00212046FEF714F9C8
:106F800007206946086021214EE09C48817A062945
:106F900001D3002181729A48007800284DD0994C85
:106FA00000212046FEF700F90720694608602821E5
:106FB0003AE09248C17A0A2901D30021C17290486F
:106FC0000078002839D08F4C00212046FEF7ECF8DD
:106FD0000720694608602D2126E08848017B0629A4
:106FE00001D30021017386480078002825D0854C04
:106FF00000212046FEF7D8F80720694608603621B0
:1070000012E07E48417B0A2901D3002141737C486C
:107010000078002811D0F54C00212046FEF7C4F876
:107020000720694608603B211F2205232046FDF703
:107030009DFE01212046FEF7B7F8FDF70FF9F34F4B
:10704000B87A3C2801D30020B872F87A3C2801D3E2
:107050000020F87238793C2801D300203871787903
:107060003C2801D300207871E048E249FEF7A3F8FC
:10707000307800281AD0F878002805D1387900280F
:1070800002D17879002811D0D84813213022E9A301
:10709000FEF712F8E948417A002924D0E04900229D
:1070A0000A70E74901230B70427220E0CF4C0E2199
:1070B0003022E7A32046FDF7FFFFCD492046FEF72B
:1070C0007AF82878002832D0C84801213022D04BE5
:1070D000FDF7F2FFD14800780D282DD8C3483B2199
:1070E0003022DDA34FE0D648007800282FD0CD48CD
:1070F0000078002812D0BD4CBD492046FEF75BF851
:1071000000213025CFA320462A46FDF7D5FF3821A0
:10711000CDA320462A46C54DFDF7CEFFC0480178D5
:10712000052932D300210170C54801702DE0AF4818
:1071300002213022C9A326E00E2826D1B0480078CB
:1071400000281CD0A94838213022AF4B1BE0B6489C
:107150000078002807D0BD48694604220A604860CC
:10716000A248362106E0B948694604220A60486010
:107170009E483A212B220323FDF7B0FF05E09B48F0
:1071800034213022A34BFDF797FF9848FEF704F80F
:10719000AA48817A00290DD02978002908D09F4972
:1071A0000A78521CD4B200230E2C00D813460B7060
:1071B00000218172417A00290CD03178002907D151
:1071C00096490F9A0A7029780022521A4A412A7069
:1071D0000021417296498A7A002A01D000228A72DF
:1071E0004A7A002A01D000224A72097800780843BE
:1071F000000609D09A480021017021E07C0500209A
:10720000BC0800201C080020954C2078002805D1DF
:10721000FBF7B4F99349086001202070FBF7AEF941
:10722000904C2168401A32280AD3FBF7A7F921684D
:10723000401A952804D88C480078022108426ED163
:107240008A480078012800D0CDE030462E46054619
:107250006C480024047010992B396848FBF7A4FB94
:1072600083480470834804706B480470F8780028E1
:1072700006D13879002803D17879002800D186E03A
:107280002878211A41412970F87838703879787057
:107290007879B870787AB871B87AF87134705F48D4
:1072A0000F990170F87A3872FDF704F86420FAF744
:1072B0009BFF53480078002800D191E028780028EF
:1072C00000D18DE0CD48007800281ED068480078B5
:1072D000002800D084E0B879002805D1F87900288A
